{"contracts/CourseCertificate.sol":{"CourseCertificate":{"abi":[{"inputs":[],"stateMutability":"nonpayable","type":"constructor"},{"inputs":[],"name":"CertificateAlreadyExists","type":"error"},{"inputs":[],"name":"CertificateNotFound","type":"error"},{"inputs":[],"name":"InvalidCourseId","type":"error"},{"inputs":[],"name":"InvalidRecipient","type":"error"},{"inputs":[],"name":"Unauthorized","type":"error"},{"anonymous":false,"inputs":[{"indexed":true,"internalType":"address","name":"recipient","type":"address"},{"indexed":true,"internalType":"uint256","name":"courseId","type":"uint256"},{"indexed":false,"internalType":"uint256","name":"timestamp","type":"uint256"}],"name":"CertificateIssued","type":"event"},{"inputs":[{"internalType":"address[]","name":"recipients","type":"address[]"},{"internalType":"uint256","name":"courseId","type":"uint256"}],"name":"batchIssueCertificates","outputs":[],"stateMutability":"nonpayable","type":"function"},{"inputs":[{"internalType":"uint256","name":"","type":"uint256"}],"name":"courseCertificateCount","outputs":[{"internalType":"uint256","name":"","type":"uint256"}],"stateMutability":"view","type":"function"},{"inputs":[{"internalType":"address","name":"recipient","type":"address"},{"internalType":"uint256[]","name":"courseIds","type":"uint256[]"}],"name":"getCertificateStatuses","outputs":[{"internalType":"uint256[]","name":"statuses","type":"uint256[]"}],"stateMutability":"view","type":"function"},{"inputs":[{"internalType":"address","name":"recipient","type":"address"},{"internalType":"uint256","name":"courseId","type":"uint256"}],"name":"getCertificateTimestamp","outputs":[{"internalType":"uint256","name":"timestamp","type":"uint256"}],"stateMutability":"view","type":"function"},{"inputs":[{"internalType":"uint256","name":"courseId","type":"uint256"}],"name":"getCourseCertificateCount","outputs":[{"internalType":"uint256","name":"count","type":"uint256"}],"stateMutability":"view","type":"function"},{"inputs":[],"name":"getStats","outputs":[{"internalType":"uint256","name":"totalIssued","type":"uint256"},{"internalType":"address","name":"contractOwner","type":"address"}],"stateMutability":"view","type":"function"},{"inputs":[{"internalType":"address","name":"recipient","type":"address"},{"internalType":"uint256","name":"courseId","type":"uint256"}],"name":"hasCertificate","outputs":[{"internalType":"bool","name":"exists","type":"bool"},{"internalType":"uint256","name":"timestamp","type":"uint256"}],"stateMutability":"view","type":"function"},{"inputs":[{"internalType":"address","name":"recipient","type":"address"},{"internalType":"uint256","name":"courseId","type":"uint256"}],"name":"issueCertificate","outputs":[],"stateMutability":"nonpayable","type":"function"},{"inputs":[],"name":"owner","outputs":[{"internalType":"address","name":"","type":"address"}],"stateMutability":"view","type":"function"},{"inputs":[],"name":"totalCertificates","outputs":[{"internalType":"uint256","name":"","type":"uint256"}],"stateMutability":"view","type":"function"}],"devdoc":{"details":"Gas-optimized certificate contract for Celo Academy","events":{"CertificateIssued(address,uint256,uint256)":{"params":{"courseId":"The course ID","recipient":"The certificate recipient","timestamp":"When the certificate was issued"}}},"kind":"dev","methods":{"batchIssueCertificates(address[],uint256)":{"params":{"courseId":"The completed course ID","recipients":"Array of certificate recipients"}},"getCertificateStatuses(address,uint256[])":{"params":{"courseIds":"Array of course IDs to check","recipient":"The user address"},"returns":{"statuses":"Array of certificate timestamps (0 if doesn't exist)"}},"getCertificateTimestamp(address,uint256)":{"params":{"courseId":"The course ID","recipient":"The user address"},"returns":{"timestamp":"When the certificate was issued"}},"getCourseCertificateCount(uint256)":{"params":{"courseId":"The course ID"},"returns":{"count":"Number of certificates issued for the course"}},"getStats()":{"returns":{"contractOwner":"Contract owner address","totalIssued":"Total certificates issued"}},"hasCertificate(address,uint256)":{"params":{"courseId":"The course ID","recipient":"The user address"},"returns":{"exists":"Whether the certificate exists","timestamp":"When the certificate was issued (0 if doesn't exist)"}},"issueCertificate(address,uint256)":{"params":{"courseId":"The completed course ID","recipient":"The certificate recipient"}}},"title":"CourseCertificate","version":1},"evm":{"bytecode":{"linkReferences":{},"object":"60a0806040523461003757336080526106ef908161003d823960805181818160d801528181610265015281816102c201526104ca0152f35b600080fdfe6080604081815260048036101561001557600080fd5b600092833560e01c9081630a214a8f14610483575080630ce7ed981461043b5780634d3713ef146103e3578063596b772f146103c4578063599cb8c01461039d5780636c4ecd84146102985780638da5cb5b14610250578063a229af4e1461010a578063c59d4847146100bb5763ea6a381e1461009157600080fd5b346100b75760203660031901126100b75760209282913581526001845220549051908152f35b8280fd5b8284346101075780600319360112610107575060025481519081527f00000000000000000000000000000000000000000000000000000000000000006001600160a01b03166020820152f35b80fd5b50823461010757826003193601126101075761012461064f565b90602480359267ffffffffffffffff9384811161024c579061014d601f94939236908801610619565b96906101588861068b565b895197871997909101871688019081118882101761023a57899897959699528685526101838761068b565b966020998a870198013689376001600160a01b0390931692865b8181106101e55750505050505083519485948186019282875251809352850193925b8281106101ce57505050500390f35b8351855286955093810193928101926001016101bf565b848897999a9b98528688528a87206101fe828486610665565b35885288528a872054895182101561022857600582901b8a0189015296999897959660010161019d565b634e487b7160e01b8852603285528688fd5b634e487b7160e01b8652604183528486fd5b8380fd5b505034610294578160031936011261029457517f00000000000000000000000000000000000000000000000000000000000000006001600160a01b03168152602090f35b5080fd5b5090346100b757806003193601126100b7576102b261064f565b60243592906001600160a01b03907f00000000000000000000000000000000000000000000000000000000000000008216330361038e5716918215610381578315610374578285526020918583528186208587528352818620546103665750907f65db4d653a1dec19354793622d6b806e92c72ac3f02709ab594eaf33c3a968669183865285825280862085875282524281872055600182528086206001815401905560016002540160025551428152a380f35b9051635a0e33b560e01b8152fd5b51636482b7e760e11b8152fd5b51634e46966960e11b8152fd5b83516282b42960e81b81528390fd5b50346100b75760203660031901126100b75760209282913581526001845220549051908152f35b5050346102945781600319360112610294576020906002549051908152f35b50913461010757816003193601126101075781906001600160a01b0361040761064f565b168152806020528181206024358252602052205490811561042c576020925051908152f35b5163761e55e760e01b81529050fd5b5050346102945780600319360112610294579081906001600160a01b0361046061064f565b168152806020528181206024358252602052205481519080151582526020820152f35b849391503461024c578160031936011261024c57823567ffffffffffffffff8111610615576104b59036908501610619565b9360248035939192916001600160a01b0391907f000000000000000000000000000000000000000000000000000000000000000083163303610608575084156105f85786156105e8578796885b8181106105355750505050505082610518578380f35b835260016020528220818154019055600254016002558180808380f35b610540818387610665565b358481168091036105e457801515806105c9575b610562575b50600101610502565b808b526020998b8b52898c20898d528b52428a8d205560001981146105b757600192917f65db4d653a1dec19354793622d6b806e92c72ac3f02709ab594eaf33c3a96866848b93019c8c51428152a390610559565b634e487b7160e01b8c5260118852848cfd5b50808b5260208b8152898c2090898d5252888b205415610554565b8a80fd5b8551634e46966960e11b81528490fd5b8551636482b7e760e11b81528490fd5b6282b42960e81b81528490fd5b8480fd5b9181601f8401121561064a5782359167ffffffffffffffff831161064a576020808501948460051b01011161064a57565b600080fd5b600435906001600160a01b038216820361064a57565b91908110156106755760051b0190565b634e487b7160e01b600052603260045260246000fd5b67ffffffffffffffff81116106a35760051b60200190565b634e487b7160e01b600052604160045260246000fdfea26469706673582212203b6eecce3cd5604ec978830eb32106d3d4878fe4a4e91bceca0a85d1052ebcc764736f6c63430008140033","opcodes":"PUSH1 0xA0 DUP1 PUSH1 0x40 MSTORE CALLVALUE PUSH2 0x37 JUMPI CALLER PUSH1 0x80 MSTORE PUSH2 0x6EF SWAP1 DUP2 PUSH2 0x3D DUP3 CODECOPY PUSH1 0x80 MLOAD DUP2 DUP2 DUP2 PUSH1 0xD8 ADD MSTORE DUP2 DUP2 PUSH2 0x265 ADD MSTORE DUP2 DUP2 PUSH2 0x2C2 ADD MSTORE PUSH2 0x4CA ADD MSTORE RETURN JUMPDEST PUSH1 0x0 DUP1 REVERT INVALID PUSH1 0x80 PUSH1 0x40 DUP2 DUP2 MSTORE PUSH1 0x4 DUP1 CALLDATASIZE LT ISZERO PUSH2 0x15 JUMPI PUSH1 0x0 DUP1 REVERT JUMPDEST PUSH1 0x0 SWAP3 DUP4 CALLDATALOAD PUSH1 0xE0 SHR SWAP1 DUP2 PUSH4 0xA214A8F EQ PUSH2 0x483 JUMPI POP DUP1 PUSH4 0xCE7ED98 EQ PUSH2 0x43B JUMPI DUP1 PUSH4 0x4D3713EF EQ PUSH2 0x3E3 JUMPI DUP1 PUSH4 0x596B772F EQ PUSH2 0x3C4 JUMPI DUP1 PUSH4 0x599CB8C0 EQ PUSH2 0x39D JUMPI DUP1 PUSH4 0x6C4ECD84 EQ PUSH2 0x298 JUMPI DUP1 PUSH4 0x8DA5CB5B EQ PUSH2 0x250 JUMPI DUP1 PUSH4 0xA229AF4E EQ PUSH2 0x10A JUMPI DUP1 PUSH4 0xC59D4847 EQ PUSH2 0xBB JUMPI PUSH4 0xEA6A381E EQ PUSH2 0x91 JUMPI PUSH1 0x0 DUP1 REVERT JUMPDEST CALLVALUE PUSH2 0xB7 JUMPI PUSH1 0x20 CALLDATASIZE PUSH1 0x3 NOT ADD SLT PUSH2 0xB7 JUMPI PUSH1 0x20 SWAP3 DUP3 SWAP2 CALLDATALOAD DUP2 MSTORE PUSH1 0x1 DUP5 MSTORE KECCAK256 SLOAD SWAP1 MLOAD SWAP1 DUP2 MSTORE RETURN JUMPDEST DUP3 DUP1 REVERT JUMPDEST DUP3 DUP5 CALLVALUE PUSH2 0x107 JUMPI DUP1 PUSH1 0x3 NOT CALLDATASIZE ADD SLT PUSH2 0x107 JUMPI POP PUSH1 0x2 SLOAD DUP2 MLOAD SWAP1 DUP2 MSTORE PUSH32 0x0 PUSH1 0x1 PUSH1 0x1 PUSH1 0xA0 SHL SUB AND PUSH1 0x20 DUP3 ADD MSTORE RETURN JUMPDEST DUP1 REVERT JUMPDEST POP DUP3 CALLVALUE PUSH2 0x107 JUMPI DUP3 PUSH1 0x3 NOT CALLDATASIZE ADD SLT PUSH2 0x107 JUMPI PUSH2 0x124 PUSH2 0x64F JUMP JUMPDEST SWAP1 PUSH1 0x24 DUP1 CALLDATALOAD SWAP3 PUSH8 0xFFFFFFFFFFFFFFFF SWAP4 DUP5 DUP2 GT PUSH2 0x24C JUMPI SWAP1 PUSH2 0x14D PUSH1 0x1F SWAP5 SWAP4 SWAP3 CALLDATASIZE SWAP1 DUP9 ADD PUSH2 0x619 JUMP JUMPDEST SWAP7 SWAP1 PUSH2 0x158 DUP9 PUSH2 0x68B JUMP JUMPDEST DUP10 MLOAD SWAP8 DUP8 NOT SWAP8 SWAP1 SWAP2 ADD DUP8 AND DUP9 ADD SWAP1 DUP2 GT DUP9 DUP3 LT OR PUSH2 0x23A JUMPI DUP10 SWAP9 SWAP8 SWAP6 SWAP7 SWAP10 MSTORE DUP7 DUP6 MSTORE PUSH2 0x183 DUP8 PUSH2 0x68B JUMP JUMPDEST SWAP7 PUSH1 0x20 SWAP10 DUP11 DUP8 ADD SWAP9 ADD CALLDATASIZE DUP10 CALLDATACOPY PUSH1 0x1 PUSH1 0x1 PUSH1 0xA0 SHL SUB SWAP1 SWAP4 AND SWAP3 DUP7 JUMPDEST DUP2 DUP2 LT PUSH2 0x1E5 JUMPI POP POP POP POP POP POP DUP4 MLOAD SWAP5 DUP6 SWAP5 DUP2 DUP7 ADD SWAP3 DUP3 DUP8 MSTORE MLOAD DUP1 SWAP4 MSTORE DUP6 ADD SWAP4 SWAP3 JUMPDEST DUP3 DUP2 LT PUSH2 0x1CE JUMPI POP POP POP POP SUB SWAP1 RETURN JUMPDEST DUP4 MLOAD DUP6 MSTORE DUP7 SWAP6 POP SWAP4 DUP2 ADD SWAP4 SWAP3 DUP2 ADD SWAP3 PUSH1 0x1 ADD PUSH2 0x1BF JUMP JUMPDEST DUP5 DUP9 SWAP8 SWAP10 SWAP11 SWAP12 SWAP9 MSTORE DUP7 DUP9 MSTORE DUP11 DUP8 KECCAK256 PUSH2 0x1FE DUP3 DUP5 DUP7 PUSH2 0x665 JUMP JUMPDEST CALLDATALOAD DUP9 MSTORE DUP9 MSTORE DUP11 DUP8 KECCAK256 SLOAD DUP10 MLOAD DUP3 LT ISZERO PUSH2 0x228 JUMPI PUSH1 0x5 DUP3 SWAP1 SHL DUP11 ADD DUP10 ADD MSTORE SWAP7 SWAP10 SWAP9 SWAP8 SWAP6 SWAP7 PUSH1 0x1 ADD PUSH2 0x19D JUMP JUMPDEST PUSH4 0x4E487B71 PUSH1 0xE0 SHL DUP9 MSTORE PUSH1 0x32 DUP6 MSTORE DUP7 DUP9 REVERT JUMPDEST PUSH4 0x4E487B71 PUSH1 0xE0 SHL DUP7 MSTORE PUSH1 0x41 DUP4 MSTORE DUP5 DUP7 REVERT JUMPDEST DUP4 DUP1 REVERT JUMPDEST POP POP CALLVALUE PUSH2 0x294 JUMPI DUP2 PUSH1 0x3 NOT CALLDATASIZE ADD SLT PUSH2 0x294 JUMPI MLOAD PUSH32 0x0 PUSH1 0x1 PUSH1 0x1 PUSH1 0xA0 SHL SUB AND DUP2 MSTORE PUSH1 0x20 SWAP1 RETURN JUMPDEST POP DUP1 REVERT JUMPDEST POP SWAP1 CALLVALUE PUSH2 0xB7 JUMPI DUP1 PUSH1 0x3 NOT CALLDATASIZE ADD SLT PUSH2 0xB7 JUMPI PUSH2 0x2B2 PUSH2 0x64F JUMP JUMPDEST PUSH1 0x24 CALLDATALOAD SWAP3 SWAP1 PUSH1 0x1 PUSH1 0x1 PUSH1 0xA0 SHL SUB SWAP1 PUSH32 0x0 DUP3 AND CALLER SUB PUSH2 0x38E JUMPI AND SWAP2 DUP3 ISZERO PUSH2 0x381 JUMPI DUP4 ISZERO PUSH2 0x374 JUMPI DUP3 DUP6 MSTORE PUSH1 0x20 SWAP2 DUP6 DUP4 MSTORE DUP2 DUP7 KECCAK256 DUP6 DUP8 MSTORE DUP4 MSTORE DUP2 DUP7 KECCAK256 SLOAD PUSH2 0x366 JUMPI POP SWAP1 PUSH32 0x65DB4D653A1DEC19354793622D6B806E92C72AC3F02709AB594EAF33C3A96866 SWAP2 DUP4 DUP7 MSTORE DUP6 DUP3 MSTORE DUP1 DUP7 KECCAK256 DUP6 DUP8 MSTORE DUP3 MSTORE TIMESTAMP DUP2 DUP8 KECCAK256 SSTORE PUSH1 0x1 DUP3 MSTORE DUP1 DUP7 KECCAK256 PUSH1 0x1 DUP2 SLOAD ADD SWAP1 SSTORE PUSH1 0x1 PUSH1 0x2 SLOAD ADD PUSH1 0x2 SSTORE MLOAD TIMESTAMP DUP2 MSTORE LOG3 DUP1 RETURN JUMPDEST SWAP1 MLOAD PUSH4 0x5A0E33B5 PUSH1 0xE0 SHL DUP2 MSTORE REVERT JUMPDEST MLOAD PUSH4 0x6482B7E7 PUSH1 0xE1 SHL DUP2 MSTORE REVERT JUMPDEST MLOAD PUSH4 0x4E469669 PUSH1 0xE1 SHL DUP2 MSTORE REVERT JUMPDEST DUP4 MLOAD PUSH3 0x82B429 PUSH1 0xE8 SHL DUP2 MSTORE DUP4 SWAP1 REVERT JUMPDEST POP CALLVALUE PUSH2 0xB7 JUMPI PUSH1 0x20 CALLDATASIZE PUSH1 0x3 NOT ADD SLT PUSH2 0xB7 JUMPI PUSH1 0x20 SWAP3 DUP3 SWAP2 CALLDATALOAD DUP2 MSTORE PUSH1 0x1 DUP5 MSTORE KECCAK256 SLOAD SWAP1 MLOAD SWAP1 DUP2 MSTORE RETURN JUMPDEST POP POP CALLVALUE PUSH2 0x294 JUMPI DUP2 PUSH1 0x3 NOT CALLDATASIZE ADD SLT PUSH2 0x294 JUMPI PUSH1 0x20 SWAP1 PUSH1 0x2 SLOAD SWAP1 MLOAD SWAP1 DUP2 MSTORE RETURN JUMPDEST POP SWAP2 CALLVALUE PUSH2 0x107 JUMPI DUP2 PUSH1 0x3 NOT CALLDATASIZE ADD SLT PUSH2 0x107 JUMPI DUP2 SWAP1 PUSH1 0x1 PUSH1 0x1 PUSH1 0xA0 SHL SUB PUSH2 0x407 PUSH2 0x64F JUMP JUMPDEST AND DUP2 MSTORE DUP1 PUSH1 0x20 MSTORE DUP2 DUP2 KECCAK256 PUSH1 0x24 CALLDATALOAD DUP3 MSTORE PUSH1 0x20 MSTORE KECCAK256 SLOAD SWAP1 DUP2 ISZERO PUSH2 0x42C JUMPI PUSH1 0x20 SWAP3 POP MLOAD SWAP1 DUP2 MSTORE RETURN JUMPDEST MLOAD PUSH4 0x761E55E7 PUSH1 0xE0 SHL DUP2 MSTORE SWAP1 POP REVERT JUMPDEST POP POP CALLVALUE PUSH2 0x294 JUMPI DUP1 PUSH1 0x3 NOT CALLDATASIZE ADD SLT PUSH2 0x294 JUMPI SWAP1 DUP2 SWAP1 PUSH1 0x1 PUSH1 0x1 PUSH1 0xA0 SHL SUB PUSH2 0x460 PUSH2 0x64F JUMP JUMPDEST AND DUP2 MSTORE DUP1 PUSH1 0x20 MSTORE DUP2 DUP2 KECCAK256 PUSH1 0x24 CALLDATALOAD DUP3 MSTORE PUSH1 0x20 MSTORE KECCAK256 SLOAD DUP2 MLOAD SWAP1 DUP1 ISZERO ISZERO DUP3 MSTORE PUSH1 0x20 DUP3 ADD MSTORE RETURN JUMPDEST DUP5 SWAP4 SWAP2 POP CALLVALUE PUSH2 0x24C JUMPI DUP2 PUSH1 0x3 NOT CALLDATASIZE ADD SLT PUSH2 0x24C JUMPI DUP3 CALLDATALOAD PUSH8 0xFFFFFFFFFFFFFFFF DUP2 GT PUSH2 0x615 JUMPI PUSH2 0x4B5 SWAP1 CALLDATASIZE SWAP1 DUP6 ADD PUSH2 0x619 JUMP JUMPDEST SWAP4 PUSH1 0x24 DUP1 CALLDATALOAD SWAP4 SWAP2 SWAP3 SWAP2 PUSH1 0x1 PUSH1 0x1 PUSH1 0xA0 SHL SUB SWAP2 SWAP1 PUSH32 0x0 DUP4 AND CALLER SUB PUSH2 0x608 JUMPI POP DUP5 ISZERO PUSH2 0x5F8 JUMPI DUP7 ISZERO PUSH2 0x5E8 JUMPI DUP8 SWAP7 DUP9 JUMPDEST DUP2 DUP2 LT PUSH2 0x535 JUMPI POP POP POP POP POP POP DUP3 PUSH2 0x518 JUMPI DUP4 DUP1 RETURN JUMPDEST DUP4 MSTORE PUSH1 0x1 PUSH1 0x20 MSTORE DUP3 KECCAK256 DUP2 DUP2 SLOAD ADD SWAP1 SSTORE PUSH1 0x2 SLOAD ADD PUSH1 0x2 SSTORE DUP2 DUP1 DUP1 DUP4 DUP1 RETURN JUMPDEST PUSH2 0x540 DUP2 DUP4 DUP8 PUSH2 0x665 JUMP JUMPDEST CALLDATALOAD DUP5 DUP2 AND DUP1 SWAP2 SUB PUSH2 0x5E4 JUMPI DUP1 ISZERO ISZERO DUP1 PUSH2 0x5C9 JUMPI JUMPDEST PUSH2 0x562 JUMPI JUMPDEST POP PUSH1 0x1 ADD PUSH2 0x502 JUMP JUMPDEST DUP1 DUP12 MSTORE PUSH1 0x20 SWAP10 DUP12 DUP12 MSTORE DUP10 DUP13 KECCAK256 DUP10 DUP14 MSTORE DUP12 MSTORE TIMESTAMP DUP11 DUP14 KECCAK256 SSTORE PUSH1 0x0 NOT DUP2 EQ PUSH2 0x5B7 JUMPI PUSH1 0x1 SWAP3 SWAP2 PUSH32 0x65DB4D653A1DEC19354793622D6B806E92C72AC3F02709AB594EAF33C3A96866 DUP5 DUP12 SWAP4 ADD SWAP13 DUP13 MLOAD TIMESTAMP DUP2 MSTORE LOG3 SWAP1 PUSH2 0x559 JUMP JUMPDEST PUSH4 0x4E487B71 PUSH1 0xE0 SHL DUP13 MSTORE PUSH1 0x11 DUP9 MSTORE DUP5 DUP13 REVERT JUMPDEST POP DUP1 DUP12 MSTORE PUSH1 0x20 DUP12 DUP2 MSTORE DUP10 DUP13 KECCAK256 SWAP1 DUP10 DUP14 MSTORE MSTORE DUP9 DUP12 KECCAK256 SLOAD ISZERO PUSH2 0x554 JUMP JUMPDEST DUP11 DUP1 REVERT JUMPDEST DUP6 MLOAD PUSH4 0x4E469669 PUSH1 0xE1 SHL DUP2 MSTORE DUP5 SWAP1 REVERT JUMPDEST DUP6 MLOAD PUSH4 0x6482B7E7 PUSH1 0xE1 SHL DUP2 MSTORE DUP5 SWAP1 REVERT JUMPDEST PUSH3 0x82B429 PUSH1 0xE8 SHL DUP2 MSTORE DUP5 SWAP1 REVERT JUMPDEST DUP5 DUP1 REVERT JUMPDEST SWAP2 DUP2 PUSH1 0x1F DUP5 ADD SLT ISZERO PUSH2 0x64A JUMPI DUP3 CALLDATALOAD SWAP2 PUSH8 0xFFFFFFFFFFFFFFFF DUP4 GT PUSH2 0x64A JUMPI PUSH1 0x20 DUP1 DUP6 ADD SWAP5 DUP5 PUSH1 0x5 SHL ADD ADD GT PUSH2 0x64A JUMPI JUMP JUMPDEST PUSH1 0x0 DUP1 REVERT JUMPDEST PUSH1 0x4 CALLDATALOAD SWAP1 PUSH1 0x1 PUSH1 0x1 PUSH1 0xA0 SHL SUB DUP3 AND DUP3 SUB PUSH2 0x64A JUMPI JUMP JUMPDEST SWAP2 SWAP1 DUP2 LT ISZERO PUSH2 0x675 JUMPI PUSH1 0x5 SHL ADD SWAP1 JUMP JUMPDEST PUSH4 0x4E487B71 PUSH1 0xE0 SHL PUSH1 0x0 MSTORE PUSH1 0x32 PUSH1 0x4 MSTORE PUSH1 0x24 PUSH1 0x0 REVERT JUMPDEST PUSH8 0xFFFFFFFFFFFFFFFF DUP2 GT PUSH2 0x6A3 JUMPI PUSH1 0x5 SHL PUSH1 0x20 ADD SWAP1 JUMP JUMPDEST PUSH4 0x4E487B71 PUSH1 0xE0 SHL PUSH1 0x0 MSTORE PUSH1 0x41 PUSH1 0x4 MSTORE PUSH1 0x24 PUSH1 0x0 REVERT INVALID LOG2 PUSH5 0x6970667358 0x22 SLT KECCAK256 EXTCODESIZE PUSH15 0xECCE3CD5604EC978830EB32106D3D4 DUP8 DUP16 0xE4 LOG4 0xE9 SHL 0xCE 0xCA EXP DUP6 0xD1 SDIV 0x2E 0xBC 0xC7 PUSH5 0x736F6C6343 STOP ADDMOD EQ STOP CALLER "},"gasEstimates":{"creation":{"codeDepositCost":"355000","executionCost":"infinite","totalCost":"infinite"},"external":{"batchIssueCertificates(address[],uint256)":"infinite","courseCertificateCount(uint256)":"2531","getCertificateStatuses(address,uint256[])":"infinite","getCertificateTimestamp(address,uint256)":"2564","getCourseCertificateCount(uint256)":"2426","getStats()":"infinite","hasCertificate(address,uint256)":"2537","issueCertificate(address,uint256)":"infinite","owner()":"infinite","totalCertificates()":"2343"}},"methodIdentifiers":{"batchIssueCertificates(address[],uint256)":"0a214a8f","courseCertificateCount(uint256)":"ea6a381e","getCertificateStatuses(address,uint256[])":"a229af4e","getCertificateTimestamp(address,uint256)":"4d3713ef","getCourseCertificateCount(uint256)":"599cb8c0","getStats()":"c59d4847","hasCertificate(address,uint256)":"0ce7ed98","issueCertificate(address,uint256)":"6c4ecd84","owner()":"8da5cb5b","totalCertificates()":"596b772f"}},"storageLayout":{"storage":[{"astId":9,"contract":"contracts/CourseCertificate.sol:CourseCertificate","label":"_certificates","offset":0,"slot":"0","type":"t_mapping(t_address,t_mapping(t_uint256,t_uint256))"},{"astId":14,"contract":"contracts/CourseCertificate.sol:CourseCertificate","label":"courseCertificateCount","offset":0,"slot":"1","type":"t_mapping(t_uint256,t_uint256)"},{"astId":17,"contract":"contracts/CourseCertificate.sol:CourseCertificate","label":"totalCertificates","offset":0,"slot":"2","type":"t_uint256"}],"types":{"t_address":{"encoding":"inplace","label":"address","numberOfBytes":"20"},"t_mapping(t_address,t_mapping(t_uint256,t_uint256))":{"encoding":"mapping","key":"t_address","label":"mapping(address => mapping(uint256 => uint256))","numberOfBytes":"32","value":"t_mapping(t_uint256,t_uint256)"},"t_mapping(t_uint256,t_uint256)":{"encoding":"mapping","key":"t_uint256","label":"mapping(uint256 => uint256)","numberOfBytes":"32","value":"t_uint256"},"t_uint256":{"encoding":"inplace","label":"uint256","numberOfBytes":"32"}}},"userdoc":{"events":{"CertificateIssued(address,uint256,uint256)":{"notice":"Emitted when a certificate is issued"}},"kind":"user","methods":{"batchIssueCertificates(address[],uint256)":{"notice":"Batch issue certificates for multiple recipients"},"courseCertificateCount(uint256)":{"notice":"Certificate counter for each course"},"getCertificateStatuses(address,uint256[])":{"notice":"Get multiple certificate statuses for a user"},"getCertificateTimestamp(address,uint256)":{"notice":"Get certificate timestamp for a user and course"},"getCourseCertificateCount(uint256)":{"notice":"Get total number of certificates for a course"},"getStats()":{"notice":"Get contract statistics"},"hasCertificate(address,uint256)":{"notice":"Check if a user has a certificate for a course"},"issueCertificate(address,uint256)":{"notice":"Issue a certificate to a user for completing a course"},"owner()":{"notice":"Contract owner"},"totalCertificates()":{"notice":"Total certificates issued"}},"notice":"Issues certificates when users complete courses Optimized for gas efficiency on Celo mainnet","version":1}}}}