{"contracts/SimpleOptimizedBadge.sol":{"SimpleOptimizedBadge":{"abi":[{"anonymous":false,"inputs":[{"indexed":true,"internalType":"address","name":"user","type":"address"},{"indexed":true,"internalType":"uint256","name":"courseId","type":"uint256"}],"name":"Enrolled","type":"event"},{"anonymous":false,"inputs":[{"indexed":true,"internalType":"address","name":"user","type":"address"},{"indexed":true,"internalType":"uint256","name":"courseId","type":"uint256"},{"indexed":false,"internalType":"uint8","name":"moduleIndex","type":"uint8"},{"indexed":false,"internalType":"uint8","name":"total","type":"uint8"}],"name":"ModuleCompleted","type":"event"},{"inputs":[{"internalType":"uint256","name":"courseId","type":"uint256"},{"internalType":"uint8","name":"moduleIndex","type":"uint8"}],"name":"completeModule","outputs":[],"stateMutability":"nonpayable","type":"function"},{"inputs":[{"internalType":"uint256","name":"courseId","type":"uint256"}],"name":"enroll","outputs":[],"stateMutability":"nonpayable","type":"function"},{"inputs":[{"internalType":"address","name":"user","type":"address"},{"internalType":"uint256","name":"courseId","type":"uint256"}],"name":"getModulesCompleted","outputs":[{"internalType":"uint8","name":"","type":"uint8"}],"stateMutability":"view","type":"function"},{"inputs":[{"internalType":"address","name":"user","type":"address"},{"internalType":"uint256","name":"courseId","type":"uint256"}],"name":"isEnrolled","outputs":[{"internalType":"bool","name":"","type":"bool"}],"stateMutability":"view","type":"function"},{"inputs":[{"internalType":"address","name":"user","type":"address"},{"internalType":"uint256","name":"courseId","type":"uint256"},{"internalType":"uint8","name":"moduleIndex","type":"uint8"}],"name":"isModuleCompleted","outputs":[{"internalType":"bool","name":"","type":"bool"}],"stateMutability":"view","type":"function"},{"inputs":[{"internalType":"address","name":"","type":"address"},{"internalType":"uint256","name":"","type":"uint256"}],"name":"totalCompleted","outputs":[{"internalType":"uint8","name":"","type":"uint8"}],"stateMutability":"view","type":"function"}],"devdoc":{"details":"Gas-optimized course enrollment and progress tracking Target: <0.05 CELO per transaction","kind":"dev","methods":{"completeModule(uint256,uint8)":{"details":"Complete a module (sets bit 1-255)"},"enroll(uint256)":{"details":"Enroll in a course (sets bit 0)"},"getModulesCompleted(address,uint256)":{"details":"Get total modules completed"},"isEnrolled(address,uint256)":{"details":"Check if user is enrolled"},"isModuleCompleted(address,uint256,uint8)":{"details":"Check if module is completed"}},"title":"SimpleOptimizedBadge","version":1},"evm":{"bytecode":{"linkReferences":{},"object":"608080604052346100165761042d908161001c8239f35b600080fdfe608060408181526004908136101561001657600080fd5b600092833560e01c90816337e15d14146101e8575080636f5768d9146101a3578063a71b77a0146101a3578063ae02bd0a1461015d578063bbb1708c146101135763f57d585b1461006657600080fd5b3461010f576020918260031936011261010b5780359233855284815282852084865281528285205491600183166100d757509060019133865285815283862090858752521790832055337f490a826084db94ebf4ad258b797124c9f62176dd5f68205ffbd52d1260f7ed548380a380f35b60649184519162461bcd60e51b8352820152601060248201526f105b1c9958591e48195b9c9bdb1b195960821b6044820152fd5b8380fd5b8280fd5b83823461015957806003193601126101595760209160019082906001600160a01b0361013d61038b565b1681528085528181206024358252855220541615159051908152f35b5080fd5b8382346101595760603660031901126101595761017861038b565b6044359260ff841684036101a0575060209261019791602435906103a6565b90519015158152f35b80fd5b83823461015957806003193601126101595760209160ff9082906001600160a01b036101cd61038b565b16815260018552818120602435825285522054169051908152f35b849291503461010f578160031936011261010f578335916024359160ff90818416809403610387578315158061037e575b1561034c5750338552602090858252828620858752825282862054600181161561031a576001851b908181166102e4573388528784528488208789528452178387205533865260018252828620858752825282862080548281168381146102d1577f9fcaf64787e5aa22ed93ae2bcbf6a4e537795d24a120800a3914b57a7441cfec96979899506001849101169060ff191617905533875260018252828720868852825282872054169082519485528401523392a380f35b634e487b7160e01b895260118a52602489fd5b845162461bcd60e51b8152808a01859052601060248201526f135bd91d5b194818dbdb5c1b195d195960821b6044820152606490fd5b835162461bcd60e51b8152808901849052600c60248201526b139bdd08195b9c9bdb1b195960a21b6044820152606490fd5b62461bcd60e51b8152602087820152600e60248201526d496e76616c6964206d6f64756c6560901b6044820152606490fd5b50818410610219565b8580fd5b600435906001600160a01b03821682036103a157565b600080fd5b9160ff1691821580156103ec575b6103e45760018060a01b031660005260006020526040600020906000526020526001604060002054911b16151590565b505050600090565b5060ff8310156103b456fea26469706673582212200b73f334ad892f3971f2bb0533cd8ccc86e6ed39300b2080fbb0db290e5aec1064736f6c63430008140033","opcodes":"PUSH1 0x80 DUP1 PUSH1 0x40 MSTORE CALLVALUE PUSH2 0x16 JUMPI PUSH2 0x42D SWAP1 DUP2 PUSH2 0x1C DUP3 CODECOPY RETURN JUMPDEST PUSH1 0x0 DUP1 REVERT INVALID PUSH1 0x80 PUSH1 0x40 DUP2 DUP2 MSTORE PUSH1 0x4 SWAP1 DUP2 CALLDATASIZE LT ISZERO PUSH2 0x16 JUMPI PUSH1 0x0 DUP1 REVERT JUMPDEST PUSH1 0x0 SWAP3 DUP4 CALLDATALOAD PUSH1 0xE0 SHR SWAP1 DUP2 PUSH4 0x37E15D14 EQ PUSH2 0x1E8 JUMPI POP DUP1 PUSH4 0x6F5768D9 EQ PUSH2 0x1A3 JUMPI DUP1 PUSH4 0xA71B77A0 EQ PUSH2 0x1A3 JUMPI DUP1 PUSH4 0xAE02BD0A EQ PUSH2 0x15D JUMPI DUP1 PUSH4 0xBBB1708C EQ PUSH2 0x113 JUMPI PUSH4 0xF57D585B EQ PUSH2 0x66 JUMPI PUSH1 0x0 DUP1 REVERT JUMPDEST CALLVALUE PUSH2 0x10F JUMPI PUSH1 0x20 SWAP2 DUP3 PUSH1 0x3 NOT CALLDATASIZE ADD SLT PUSH2 0x10B JUMPI DUP1 CALLDATALOAD SWAP3 CALLER DUP6 MSTORE DUP5 DUP2 MSTORE DUP3 DUP6 KECCAK256 DUP5 DUP7 MSTORE DUP2 MSTORE DUP3 DUP6 KECCAK256 SLOAD SWAP2 PUSH1 0x1 DUP4 AND PUSH2 0xD7 JUMPI POP SWAP1 PUSH1 0x1 SWAP2 CALLER DUP7 MSTORE DUP6 DUP2 MSTORE DUP4 DUP7 KECCAK256 SWAP1 DUP6 DUP8 MSTORE MSTORE OR SWAP1 DUP4 KECCAK256 SSTORE CALLER PUSH32 0x490A826084DB94EBF4AD258B797124C9F62176DD5F68205FFBD52D1260F7ED54 DUP4 DUP1 LOG3 DUP1 RETURN JUMPDEST PUSH1 0x64 SWAP2 DUP5 MLOAD SWAP2 PUSH3 0x461BCD PUSH1 0xE5 SHL DUP4 MSTORE DUP3 ADD MSTORE PUSH1 0x10 PUSH1 0x24 DUP3 ADD MSTORE PUSH16 0x105B1C9958591E48195B9C9BDB1B1959 PUSH1 0x82 SHL PUSH1 0x44 DUP3 ADD MSTORE REVERT JUMPDEST DUP4 DUP1 REVERT JUMPDEST DUP3 DUP1 REVERT JUMPDEST DUP4 DUP3 CALLVALUE PUSH2 0x159 JUMPI DUP1 PUSH1 0x3 NOT CALLDATASIZE ADD SLT PUSH2 0x159 JUMPI PUSH1 0x20 SWAP2 PUSH1 0x1 SWAP1 DUP3 SWAP1 PUSH1 0x1 PUSH1 0x1 PUSH1 0xA0 SHL SUB PUSH2 0x13D PUSH2 0x38B JUMP JUMPDEST AND DUP2 MSTORE DUP1 DUP6 MSTORE DUP2 DUP2 KECCAK256 PUSH1 0x24 CALLDATALOAD DUP3 MSTORE DUP6 MSTORE KECCAK256 SLOAD AND ISZERO ISZERO SWAP1 MLOAD SWAP1 DUP2 MSTORE RETURN JUMPDEST POP DUP1 REVERT JUMPDEST DUP4 DUP3 CALLVALUE PUSH2 0x159 JUMPI PUSH1 0x60 CALLDATASIZE PUSH1 0x3 NOT ADD SLT PUSH2 0x159 JUMPI PUSH2 0x178 PUSH2 0x38B JUMP JUMPDEST PUSH1 0x44 CALLDATALOAD SWAP3 PUSH1 0xFF DUP5 AND DUP5 SUB PUSH2 0x1A0 JUMPI POP PUSH1 0x20 SWAP3 PUSH2 0x197 SWAP2 PUSH1 0x24 CALLDATALOAD SWAP1 PUSH2 0x3A6 JUMP JUMPDEST SWAP1 MLOAD SWAP1 ISZERO ISZERO DUP2 MSTORE RETURN JUMPDEST DUP1 REVERT JUMPDEST DUP4 DUP3 CALLVALUE PUSH2 0x159 JUMPI DUP1 PUSH1 0x3 NOT CALLDATASIZE ADD SLT PUSH2 0x159 JUMPI PUSH1 0x20 SWAP2 PUSH1 0xFF SWAP1 DUP3 SWAP1 PUSH1 0x1 PUSH1 0x1 PUSH1 0xA0 SHL SUB PUSH2 0x1CD PUSH2 0x38B JUMP JUMPDEST AND DUP2 MSTORE PUSH1 0x1 DUP6 MSTORE DUP2 DUP2 KECCAK256 PUSH1 0x24 CALLDATALOAD DUP3 MSTORE DUP6 MSTORE KECCAK256 SLOAD AND SWAP1 MLOAD SWAP1 DUP2 MSTORE RETURN JUMPDEST DUP5 SWAP3 SWAP2 POP CALLVALUE PUSH2 0x10F JUMPI DUP2 PUSH1 0x3 NOT CALLDATASIZE ADD SLT PUSH2 0x10F JUMPI DUP4 CALLDATALOAD SWAP2 PUSH1 0x24 CALLDATALOAD SWAP2 PUSH1 0xFF SWAP1 DUP2 DUP5 AND DUP1 SWAP5 SUB PUSH2 0x387 JUMPI DUP4 ISZERO ISZERO DUP1 PUSH2 0x37E JUMPI JUMPDEST ISZERO PUSH2 0x34C JUMPI POP CALLER DUP6 MSTORE PUSH1 0x20 SWAP1 DUP6 DUP3 MSTORE DUP3 DUP7 KECCAK256 DUP6 DUP8 MSTORE DUP3 MSTORE DUP3 DUP7 KECCAK256 SLOAD PUSH1 0x1 DUP2 AND ISZERO PUSH2 0x31A JUMPI PUSH1 0x1 DUP6 SHL SWAP1 DUP2 DUP2 AND PUSH2 0x2E4 JUMPI CALLER DUP9 MSTORE DUP8 DUP5 MSTORE DUP5 DUP9 KECCAK256 DUP8 DUP10 MSTORE DUP5 MSTORE OR DUP4 DUP8 KECCAK256 SSTORE CALLER DUP7 MSTORE PUSH1 0x1 DUP3 MSTORE DUP3 DUP7 KECCAK256 DUP6 DUP8 MSTORE DUP3 MSTORE DUP3 DUP7 KECCAK256 DUP1 SLOAD DUP3 DUP2 AND DUP4 DUP2 EQ PUSH2 0x2D1 JUMPI PUSH32 0x9FCAF64787E5AA22ED93AE2BCBF6A4E537795D24A120800A3914B57A7441CFEC SWAP7 SWAP8 SWAP9 SWAP10 POP PUSH1 0x1 DUP5 SWAP2 ADD AND SWAP1 PUSH1 0xFF NOT AND OR SWAP1 SSTORE CALLER DUP8 MSTORE PUSH1 0x1 DUP3 MSTORE DUP3 DUP8 KECCAK256 DUP7 DUP9 MSTORE DUP3 MSTORE DUP3 DUP8 KECCAK256 SLOAD AND SWAP1 DUP3 MLOAD SWAP5 DUP6 MSTORE DUP5 ADD MSTORE CALLER SWAP3 LOG3 DUP1 RETURN JUMPDEST PUSH4 0x4E487B71 PUSH1 0xE0 SHL DUP10 MSTORE PUSH1 0x11 DUP11 MSTORE PUSH1 0x24 DUP10 REVERT JUMPDEST DUP5 MLOAD PUSH3 0x461BCD PUSH1 0xE5 SHL DUP2 MSTORE DUP1 DUP11 ADD DUP6 SWAP1 MSTORE PUSH1 0x10 PUSH1 0x24 DUP3 ADD MSTORE PUSH16 0x135BD91D5B194818DBDB5C1B195D1959 PUSH1 0x82 SHL PUSH1 0x44 DUP3 ADD MSTORE PUSH1 0x64 SWAP1 REVERT JUMPDEST DUP4 MLOAD PUSH3 0x461BCD PUSH1 0xE5 SHL DUP2 MSTORE DUP1 DUP10 ADD DUP5 SWAP1 MSTORE PUSH1 0xC PUSH1 0x24 DUP3 ADD MSTORE PUSH12 0x139BDD08195B9C9BDB1B1959 PUSH1 0xA2 SHL PUSH1 0x44 DUP3 ADD MSTORE PUSH1 0x64 SWAP1 REVERT JUMPDEST PUSH3 0x461BCD PUSH1 0xE5 SHL DUP2 MSTORE PUSH1 0x20 DUP8 DUP3 ADD MSTORE PUSH1 0xE PUSH1 0x24 DUP3 ADD MSTORE PUSH14 0x496E76616C6964206D6F64756C65 PUSH1 0x90 SHL PUSH1 0x44 DUP3 ADD MSTORE PUSH1 0x64 SWAP1 REVERT JUMPDEST POP DUP2 DUP5 LT PUSH2 0x219 JUMP JUMPDEST DUP6 DUP1 REVERT JUMPDEST PUSH1 0x4 CALLDATALOAD SWAP1 PUSH1 0x1 PUSH1 0x1 PUSH1 0xA0 SHL SUB DUP3 AND DUP3 SUB PUSH2 0x3A1 JUMPI JUMP JUMPDEST PUSH1 0x0 DUP1 REVERT JUMPDEST SWAP2 PUSH1 0xFF AND SWAP2 DUP3 ISZERO DUP1 ISZERO PUSH2 0x3EC JUMPI JUMPDEST PUSH2 0x3E4 JUMPI PUSH1 0x1 DUP1 PUSH1 0xA0 SHL SUB AND PUSH1 0x0 MSTORE PUSH1 0x0 PUSH1 0x20 MSTORE PUSH1 0x40 PUSH1 0x0 KECCAK256 SWAP1 PUSH1 0x0 MSTORE PUSH1 0x20 MSTORE PUSH1 0x1 PUSH1 0x40 PUSH1 0x0 KECCAK256 SLOAD SWAP2 SHL AND ISZERO ISZERO SWAP1 JUMP JUMPDEST POP POP POP PUSH1 0x0 SWAP1 JUMP JUMPDEST POP PUSH1 0xFF DUP4 LT ISZERO PUSH2 0x3B4 JUMP INVALID LOG2 PUSH5 0x6970667358 0x22 SLT KECCAK256 SIGNEXTEND PUSH20 0xF334AD892F3971F2BB0533CD8CCC86E6ED39300B KECCAK256 DUP1 0xFB 0xB0 0xDB 0x29 0xE GAS 0xEC LT PUSH5 0x736F6C6343 STOP ADDMOD EQ STOP CALLER "},"gasEstimates":{"creation":{"codeDepositCost":"213800","executionCost":"263","totalCost":"214063"},"external":{"completeModule(uint256,uint8)":"53500","enroll(uint256)":"26277","getModulesCompleted(address,uint256)":"2530","isEnrolled(address,uint256)":"2602","isModuleCompleted(address,uint256,uint8)":"2741","totalCompleted(address,uint256)":"2552"}},"methodIdentifiers":{"completeModule(uint256,uint8)":"37e15d14","enroll(uint256)":"f57d585b","getModulesCompleted(address,uint256)":"6f5768d9","isEnrolled(address,uint256)":"bbb1708c","isModuleCompleted(address,uint256,uint8)":"ae02bd0a","totalCompleted(address,uint256)":"a71b77a0"}},"storageLayout":{"storage":[{"astId":8,"contract":"contracts/SimpleOptimizedBadge.sol:SimpleOptimizedBadge","label":"userData","offset":0,"slot":"0","type":"t_mapping(t_address,t_mapping(t_uint256,t_uint256))"},{"astId":14,"contract":"contracts/SimpleOptimizedBadge.sol:SimpleOptimizedBadge","label":"totalCompleted","offset":0,"slot":"1","type":"t_mapping(t_address,t_mapping(t_uint256,t_uint8))"}],"types":{"t_address":{"encoding":"inplace","label":"address","numberOfBytes":"20"},"t_mapping(t_address,t_mapping(t_uint256,t_uint256))":{"encoding":"mapping","key":"t_address","label":"mapping(address => mapping(uint256 => uint256))","numberOfBytes":"32","value":"t_mapping(t_uint256,t_uint256)"},"t_mapping(t_address,t_mapping(t_uint256,t_uint8))":{"encoding":"mapping","key":"t_address","label":"mapping(address => mapping(uint256 => uint8))","numberOfBytes":"32","value":"t_mapping(t_uint256,t_uint8)"},"t_mapping(t_uint256,t_uint256)":{"encoding":"mapping","key":"t_uint256","label":"mapping(uint256 => uint256)","numberOfBytes":"32","value":"t_uint256"},"t_mapping(t_uint256,t_uint8)":{"encoding":"mapping","key":"t_uint256","label":"mapping(uint256 => uint8)","numberOfBytes":"32","value":"t_uint8"},"t_uint256":{"encoding":"inplace","label":"uint256","numberOfBytes":"32"},"t_uint8":{"encoding":"inplace","label":"uint8","numberOfBytes":"1"}}},"userdoc":{"kind":"user","methods":{},"version":1}}}}