{"contracts/OptimizedSimpleBadge.sol":{"OptimizedSimpleBadge":{"abi":[{"inputs":[],"name":"AlreadyEnrolled","type":"error"},{"inputs":[],"name":"InvalidModule","type":"error"},{"inputs":[],"name":"ModuleAlreadyCompleted","type":"error"},{"inputs":[],"name":"NotEnrolled","type":"error"},{"anonymous":false,"inputs":[{"indexed":true,"internalType":"address","name":"user","type":"address"},{"indexed":true,"internalType":"uint256","name":"courseId","type":"uint256"}],"name":"Enrolled","type":"event"},{"anonymous":false,"inputs":[{"indexed":true,"internalType":"address","name":"user","type":"address"},{"indexed":true,"internalType":"uint256","name":"courseId","type":"uint256"},{"indexed":false,"internalType":"uint8","name":"moduleIndex","type":"uint8"},{"indexed":false,"internalType":"uint8","name":"total","type":"uint8"}],"name":"ModuleCompleted","type":"event"},{"inputs":[{"internalType":"uint256","name":"courseId","type":"uint256"},{"internalType":"uint8","name":"moduleIndex","type":"uint8"}],"name":"completeModule","outputs":[],"stateMutability":"nonpayable","type":"function"},{"inputs":[{"internalType":"uint256","name":"courseId","type":"uint256"},{"internalType":"uint8[]","name":"moduleIndices","type":"uint8[]"}],"name":"completeModulesBatch","outputs":[],"stateMutability":"nonpayable","type":"function"},{"inputs":[{"internalType":"uint256","name":"courseId","type":"uint256"}],"name":"enroll","outputs":[],"stateMutability":"nonpayable","type":"function"},{"inputs":[{"internalType":"address","name":"user","type":"address"},{"internalType":"uint256","name":"courseId","type":"uint256"}],"name":"getModulesCompleted","outputs":[{"internalType":"uint8","name":"","type":"uint8"}],"stateMutability":"view","type":"function"},{"inputs":[{"internalType":"address","name":"user","type":"address"},{"internalType":"uint256","name":"courseId","type":"uint256"},{"internalType":"uint8","name":"totalModules","type":"uint8"}],"name":"getProgressPercentage","outputs":[{"internalType":"uint8","name":"","type":"uint8"}],"stateMutability":"view","type":"function"},{"inputs":[{"internalType":"address","name":"user","type":"address"},{"internalType":"uint256","name":"courseId","type":"uint256"}],"name":"getUserCourseData","outputs":[{"internalType":"bool","name":"enrolled","type":"bool"},{"internalType":"uint8","name":"modulesCompleted","type":"uint8"},{"internalType":"uint256","name":"completionBitmap","type":"uint256"}],"stateMutability":"view","type":"function"},{"inputs":[{"internalType":"address","name":"user","type":"address"},{"internalType":"uint256","name":"courseId","type":"uint256"}],"name":"isEnrolled","outputs":[{"internalType":"bool","name":"","type":"bool"}],"stateMutability":"view","type":"function"},{"inputs":[{"internalType":"address","name":"user","type":"address"},{"internalType":"uint256","name":"courseId","type":"uint256"},{"internalType":"uint8","name":"moduleIndex","type":"uint8"}],"name":"isModuleCompleted","outputs":[{"internalType":"bool","name":"","type":"bool"}],"stateMutability":"view","type":"function"},{"inputs":[{"internalType":"address","name":"","type":"address"},{"internalType":"uint256","name":"","type":"uint256"}],"name":"totalModulesCompleted","outputs":[{"internalType":"uint8","name":"","type":"uint8"}],"stateMutability":"view","type":"function"}],"devdoc":{"details":"Ultra gas-efficient course enrollment and progress tracking Uses bit packing and minimal storage for maximum efficiency Target: <0.1 CELO per transaction","kind":"dev","methods":{"completeModule(uint256,uint8)":{"details":"Ultra-efficient module completion","params":{"courseId":"Course identifier  ","moduleIndex":"Module index (0-254, max 255 modules per course)"}},"completeModulesBatch(uint256,uint8[])":{"details":"Batch complete multiple modules (ultra gas efficient)","params":{"courseId":"Course identifier","moduleIndices":"Array of module indices to complete"}},"enroll(uint256)":{"details":"Ultra-efficient enrollment (single SSTORE)"},"getModulesCompleted(address,uint256)":{"details":"Get total modules completed count"},"getProgressPercentage(address,uint256,uint8)":{"details":"Get completion progress as percentage (0-100)"},"getUserCourseData(address,uint256)":{"details":"Get all completion data for a user+course (gas efficient)"},"isEnrolled(address,uint256)":{"details":"Check if user is enrolled in course"},"isModuleCompleted(address,uint256,uint8)":{"details":"Check if user completed specific module"}},"title":"OptimizedSimpleBadge","version":1},"evm":{"bytecode":{"linkReferences":{},"object":"608080604052346100165761060b908161001c8239f35b600080fdfe60406080815260048036101561001457600080fd5b600091823560e01c80632a1811911461049157806337e15d141461038557806342b9e6ab146103145780636f5768d9146102aa578063ae02bd0a146102ef578063ba588213146102aa578063bb1c7b1714610151578063bbb1708c146101075763f57d585b1461008357600080fd5b3461010357602036600319011261010357813591338452836020528184208385526020528184205490600182166100f55750600190338552846020528285208486526020521790832055337f490a826084db94ebf4ad258b797124c9f62176dd5f68205ffbd52d1260f7ed548380a380f35b8251636d6d97d960e01b8152fd5b8280fd5b83823461014d578060031936011261014d5760209160019082906001600160a01b036101316104b7565b1681528085528181206024358252855220541615159051908152f35b5080fd5b50903461010357816003193601126101035760249167ffffffffffffffff9190813584358481116102a657366023820112156102a657808401359485116102a657600594368782881b840101116102a257338852602091888352848920848a5283528489205460019283821615610292578a928b998c5b83811061022a5750505050338a52898452858a20858b528452178489205533885281528287209187525284209260ff8454931660ff8416019160ff831161021957505060ff169060ff191617905580f35b634e487b7160e01b86526011905284fd5b8c81831b8401013560ff811680910361028e5780158015610284575b6102745787901b8086161561025e575b5086016101c8565b61026d9088929d971796610506565b9b90610256565b8a51631bb2296560e31b81528c90fd5b5060fe8111610246565b8e80fd5b86516364a85fc960e11b81528890fd5b8780fd5b8680fd5b83823461014d578060031936011261014d5760209160ff9082906001600160a01b036102d46104b7565b16815260018552818120602435825285522054169051908152f35b83823461014d5760209061030b610305366104d2565b9161052d565b90519015158152f35b83823461014d578060031936011261014d57908160ff6060936103356104b7565b936024359460018060a01b03169485825281602052828220818352602052828220549582526001602052828220908252602052205416918151926001821615158452602084015260011c90820152f35b5082903461014d578060031936011261014d578235906024359060ff821680920361048d573384526020848152818520848652815281852054600181161561047d5783158015610473575b610463576001841b9081811661045357907f9fcaf64787e5aa22ed93ae2bcbf6a4e537795d24a120800a3914b57a7441cfec939291338852878352838820878952835217828720553386526001815281862085875281528186209081549160ff61043b818516610506565b16809360ff191617905582519485528401523392a380f35b83516345673ec160e11b81528890fd5b8251631bb2296560e31b81528790fd5b5060fe84116103d0565b82516364a85fc960e11b81528790fd5b8380fd5b83823461014d5760209060ff6104af6104a9366104d2565b9161057d565b915191168152f35b600435906001600160a01b03821682036104cd57565b600080fd5b60609060031901126104cd576004356001600160a01b03811681036104cd57906024359060443560ff811681036104cd5790565b60ff1660ff81146105175760010190565b634e487b7160e01b600052601160045260246000fd5b9160ff169182158015610573575b61056b5760018060a01b031660005260006020526040600020906000526020526001604060002054911b16151590565b505050600090565b5060fe831161053b565b909160ff1691821561056b5760009160018060a01b03168252600160205260408220908252602052606460ff604083205416029060ff82169182036105c157500490565b634e487b7160e01b81526011600452602490fdfea2646970667358221220f6e5ad945e047d1aa051c349e426334737aa887172cabdca556a9dcf011a545264736f6c63430008140033","opcodes":"PUSH1 0x80 DUP1 PUSH1 0x40 MSTORE CALLVALUE PUSH2 0x16 JUMPI PUSH2 0x60B SWAP1 DUP2 PUSH2 0x1C DUP3 CODECOPY RETURN JUMPDEST PUSH1 0x0 DUP1 REVERT INVALID PUSH1 0x40 PUSH1 0x80 DUP2 MSTORE PUSH1 0x4 DUP1 CALLDATASIZE LT ISZERO PUSH2 0x14 JUMPI PUSH1 0x0 DUP1 REVERT JUMPDEST PUSH1 0x0 SWAP2 DUP3 CALLDATALOAD PUSH1 0xE0 SHR DUP1 PUSH4 0x2A181191 EQ PUSH2 0x491 JUMPI DUP1 PUSH4 0x37E15D14 EQ PUSH2 0x385 JUMPI DUP1 PUSH4 0x42B9E6AB EQ PUSH2 0x314 JUMPI DUP1 PUSH4 0x6F5768D9 EQ PUSH2 0x2AA JUMPI DUP1 PUSH4 0xAE02BD0A EQ PUSH2 0x2EF JUMPI DUP1 PUSH4 0xBA588213 EQ PUSH2 0x2AA JUMPI DUP1 PUSH4 0xBB1C7B17 EQ PUSH2 0x151 JUMPI DUP1 PUSH4 0xBBB1708C EQ PUSH2 0x107 JUMPI PUSH4 0xF57D585B EQ PUSH2 0x83 JUMPI PUSH1 0x0 DUP1 REVERT JUMPDEST CALLVALUE PUSH2 0x103 JUMPI PUSH1 0x20 CALLDATASIZE PUSH1 0x3 NOT ADD SLT PUSH2 0x103 JUMPI DUP2 CALLDATALOAD SWAP2 CALLER DUP5 MSTORE DUP4 PUSH1 0x20 MSTORE DUP2 DUP5 KECCAK256 DUP4 DUP6 MSTORE PUSH1 0x20 MSTORE DUP2 DUP5 KECCAK256 SLOAD SWAP1 PUSH1 0x1 DUP3 AND PUSH2 0xF5 JUMPI POP PUSH1 0x1 SWAP1 CALLER DUP6 MSTORE DUP5 PUSH1 0x20 MSTORE DUP3 DUP6 KECCAK256 DUP5 DUP7 MSTORE PUSH1 0x20 MSTORE OR SWAP1 DUP4 KECCAK256 SSTORE CALLER PUSH32 0x490A826084DB94EBF4AD258B797124C9F62176DD5F68205FFBD52D1260F7ED54 DUP4 DUP1 LOG3 DUP1 RETURN JUMPDEST DUP3 MLOAD PUSH4 0x6D6D97D9 PUSH1 0xE0 SHL DUP2 MSTORE REVERT JUMPDEST DUP3 DUP1 REVERT JUMPDEST DUP4 DUP3 CALLVALUE PUSH2 0x14D JUMPI DUP1 PUSH1 0x3 NOT CALLDATASIZE ADD SLT PUSH2 0x14D JUMPI PUSH1 0x20 SWAP2 PUSH1 0x1 SWAP1 DUP3 SWAP1 PUSH1 0x1 PUSH1 0x1 PUSH1 0xA0 SHL SUB PUSH2 0x131 PUSH2 0x4B7 JUMP JUMPDEST AND DUP2 MSTORE DUP1 DUP6 MSTORE DUP2 DUP2 KECCAK256 PUSH1 0x24 CALLDATALOAD DUP3 MSTORE DUP6 MSTORE KECCAK256 SLOAD AND ISZERO ISZERO SWAP1 MLOAD SWAP1 DUP2 MSTORE RETURN JUMPDEST POP DUP1 REVERT JUMPDEST POP SWAP1 CALLVALUE PUSH2 0x103 JUMPI DUP2 PUSH1 0x3 NOT CALLDATASIZE ADD SLT PUSH2 0x103 JUMPI PUSH1 0x24 SWAP2 PUSH8 0xFFFFFFFFFFFFFFFF SWAP2 SWAP1 DUP2 CALLDATALOAD DUP5 CALLDATALOAD DUP5 DUP2 GT PUSH2 0x2A6 JUMPI CALLDATASIZE PUSH1 0x23 DUP3 ADD SLT ISZERO PUSH2 0x2A6 JUMPI DUP1 DUP5 ADD CALLDATALOAD SWAP5 DUP6 GT PUSH2 0x2A6 JUMPI PUSH1 0x5 SWAP5 CALLDATASIZE DUP8 DUP3 DUP9 SHL DUP5 ADD ADD GT PUSH2 0x2A2 JUMPI CALLER DUP9 MSTORE PUSH1 0x20 SWAP2 DUP9 DUP4 MSTORE DUP5 DUP10 KECCAK256 DUP5 DUP11 MSTORE DUP4 MSTORE DUP5 DUP10 KECCAK256 SLOAD PUSH1 0x1 SWAP3 DUP4 DUP3 AND ISZERO PUSH2 0x292 JUMPI DUP11 SWAP3 DUP12 SWAP10 DUP13 JUMPDEST DUP4 DUP2 LT PUSH2 0x22A JUMPI POP POP POP POP CALLER DUP11 MSTORE DUP10 DUP5 MSTORE DUP6 DUP11 KECCAK256 DUP6 DUP12 MSTORE DUP5 MSTORE OR DUP5 DUP10 KECCAK256 SSTORE CALLER DUP9 MSTORE DUP2 MSTORE DUP3 DUP8 KECCAK256 SWAP2 DUP8 MSTORE MSTORE DUP5 KECCAK256 SWAP3 PUSH1 0xFF DUP5 SLOAD SWAP4 AND PUSH1 0xFF DUP5 AND ADD SWAP2 PUSH1 0xFF DUP4 GT PUSH2 0x219 JUMPI POP POP PUSH1 0xFF AND SWAP1 PUSH1 0xFF NOT AND OR SWAP1 SSTORE DUP1 RETURN JUMPDEST PUSH4 0x4E487B71 PUSH1 0xE0 SHL DUP7 MSTORE PUSH1 0x11 SWAP1 MSTORE DUP5 REVERT JUMPDEST DUP13 DUP2 DUP4 SHL DUP5 ADD ADD CALLDATALOAD PUSH1 0xFF DUP2 AND DUP1 SWAP2 SUB PUSH2 0x28E JUMPI DUP1 ISZERO DUP1 ISZERO PUSH2 0x284 JUMPI JUMPDEST PUSH2 0x274 JUMPI DUP8 SWAP1 SHL DUP1 DUP7 AND ISZERO PUSH2 0x25E JUMPI JUMPDEST POP DUP7 ADD PUSH2 0x1C8 JUMP JUMPDEST PUSH2 0x26D SWAP1 DUP9 SWAP3 SWAP14 SWAP8 OR SWAP7 PUSH2 0x506 JUMP JUMPDEST SWAP12 SWAP1 PUSH2 0x256 JUMP JUMPDEST DUP11 MLOAD PUSH4 0x1BB22965 PUSH1 0xE3 SHL DUP2 MSTORE DUP13 SWAP1 REVERT JUMPDEST POP PUSH1 0xFE DUP2 GT PUSH2 0x246 JUMP JUMPDEST DUP15 DUP1 REVERT JUMPDEST DUP7 MLOAD PUSH4 0x64A85FC9 PUSH1 0xE1 SHL DUP2 MSTORE DUP9 SWAP1 REVERT JUMPDEST DUP8 DUP1 REVERT JUMPDEST DUP7 DUP1 REVERT JUMPDEST DUP4 DUP3 CALLVALUE PUSH2 0x14D JUMPI DUP1 PUSH1 0x3 NOT CALLDATASIZE ADD SLT PUSH2 0x14D JUMPI PUSH1 0x20 SWAP2 PUSH1 0xFF SWAP1 DUP3 SWAP1 PUSH1 0x1 PUSH1 0x1 PUSH1 0xA0 SHL SUB PUSH2 0x2D4 PUSH2 0x4B7 JUMP JUMPDEST AND DUP2 MSTORE PUSH1 0x1 DUP6 MSTORE DUP2 DUP2 KECCAK256 PUSH1 0x24 CALLDATALOAD DUP3 MSTORE DUP6 MSTORE KECCAK256 SLOAD AND SWAP1 MLOAD SWAP1 DUP2 MSTORE RETURN JUMPDEST DUP4 DUP3 CALLVALUE PUSH2 0x14D JUMPI PUSH1 0x20 SWAP1 PUSH2 0x30B PUSH2 0x305 CALLDATASIZE PUSH2 0x4D2 JUMP JUMPDEST SWAP2 PUSH2 0x52D JUMP JUMPDEST SWAP1 MLOAD SWAP1 ISZERO ISZERO DUP2 MSTORE RETURN JUMPDEST DUP4 DUP3 CALLVALUE PUSH2 0x14D JUMPI DUP1 PUSH1 0x3 NOT CALLDATASIZE ADD SLT PUSH2 0x14D JUMPI SWAP1 DUP2 PUSH1 0xFF PUSH1 0x60 SWAP4 PUSH2 0x335 PUSH2 0x4B7 JUMP JUMPDEST SWAP4 PUSH1 0x24 CALLDATALOAD SWAP5 PUSH1 0x1 DUP1 PUSH1 0xA0 SHL SUB AND SWAP5 DUP6 DUP3 MSTORE DUP2 PUSH1 0x20 MSTORE DUP3 DUP3 KECCAK256 DUP2 DUP4 MSTORE PUSH1 0x20 MSTORE DUP3 DUP3 KECCAK256 SLOAD SWAP6 DUP3 MSTORE PUSH1 0x1 PUSH1 0x20 MSTORE DUP3 DUP3 KECCAK256 SWAP1 DUP3 MSTORE PUSH1 0x20 MSTORE KECCAK256 SLOAD AND SWAP2 DUP2 MLOAD SWAP3 PUSH1 0x1 DUP3 AND ISZERO ISZERO DUP5 MSTORE PUSH1 0x20 DUP5 ADD MSTORE PUSH1 0x1 SHR SWAP1 DUP3 ADD MSTORE RETURN JUMPDEST POP DUP3 SWAP1 CALLVALUE PUSH2 0x14D JUMPI DUP1 PUSH1 0x3 NOT CALLDATASIZE ADD SLT PUSH2 0x14D JUMPI DUP3 CALLDATALOAD SWAP1 PUSH1 0x24 CALLDATALOAD SWAP1 PUSH1 0xFF DUP3 AND DUP1 SWAP3 SUB PUSH2 0x48D JUMPI CALLER DUP5 MSTORE PUSH1 0x20 DUP5 DUP2 MSTORE DUP2 DUP6 KECCAK256 DUP5 DUP7 MSTORE DUP2 MSTORE DUP2 DUP6 KECCAK256 SLOAD PUSH1 0x1 DUP2 AND ISZERO PUSH2 0x47D JUMPI DUP4 ISZERO DUP1 ISZERO PUSH2 0x473 JUMPI JUMPDEST PUSH2 0x463 JUMPI PUSH1 0x1 DUP5 SHL SWAP1 DUP2 DUP2 AND PUSH2 0x453 JUMPI SWAP1 PUSH32 0x9FCAF64787E5AA22ED93AE2BCBF6A4E537795D24A120800A3914B57A7441CFEC SWAP4 SWAP3 SWAP2 CALLER DUP9 MSTORE DUP8 DUP4 MSTORE DUP4 DUP9 KECCAK256 DUP8 DUP10 MSTORE DUP4 MSTORE OR DUP3 DUP8 KECCAK256 SSTORE CALLER DUP7 MSTORE PUSH1 0x1 DUP2 MSTORE DUP2 DUP7 KECCAK256 DUP6 DUP8 MSTORE DUP2 MSTORE DUP2 DUP7 KECCAK256 SWAP1 DUP2 SLOAD SWAP2 PUSH1 0xFF PUSH2 0x43B DUP2 DUP6 AND PUSH2 0x506 JUMP JUMPDEST AND DUP1 SWAP4 PUSH1 0xFF NOT AND OR SWAP1 SSTORE DUP3 MLOAD SWAP5 DUP6 MSTORE DUP5 ADD MSTORE CALLER SWAP3 LOG3 DUP1 RETURN JUMPDEST DUP4 MLOAD PUSH4 0x45673EC1 PUSH1 0xE1 SHL DUP2 MSTORE DUP9 SWAP1 REVERT JUMPDEST DUP3 MLOAD PUSH4 0x1BB22965 PUSH1 0xE3 SHL DUP2 MSTORE DUP8 SWAP1 REVERT JUMPDEST POP PUSH1 0xFE DUP5 GT PUSH2 0x3D0 JUMP JUMPDEST DUP3 MLOAD PUSH4 0x64A85FC9 PUSH1 0xE1 SHL DUP2 MSTORE DUP8 SWAP1 REVERT JUMPDEST DUP4 DUP1 REVERT JUMPDEST DUP4 DUP3 CALLVALUE PUSH2 0x14D JUMPI PUSH1 0x20 SWAP1 PUSH1 0xFF PUSH2 0x4AF PUSH2 0x4A9 CALLDATASIZE PUSH2 0x4D2 JUMP JUMPDEST SWAP2 PUSH2 0x57D JUMP JUMPDEST SWAP2 MLOAD SWAP2 AND DUP2 MSTORE RETURN JUMPDEST PUSH1 0x4 CALLDATALOAD SWAP1 PUSH1 0x1 PUSH1 0x1 PUSH1 0xA0 SHL SUB DUP3 AND DUP3 SUB PUSH2 0x4CD JUMPI JUMP JUMPDEST PUSH1 0x0 DUP1 REVERT JUMPDEST PUSH1 0x60 SWAP1 PUSH1 0x3 NOT ADD SLT PUSH2 0x4CD JUMPI PUSH1 0x4 CALLDATALOAD PUSH1 0x1 PUSH1 0x1 PUSH1 0xA0 SHL SUB DUP2 AND DUP2 SUB PUSH2 0x4CD JUMPI SWAP1 PUSH1 0x24 CALLDATALOAD SWAP1 PUSH1 0x44 CALLDATALOAD PUSH1 0xFF DUP2 AND DUP2 SUB PUSH2 0x4CD JUMPI SWAP1 JUMP JUMPDEST PUSH1 0xFF AND PUSH1 0xFF DUP2 EQ PUSH2 0x517 JUMPI PUSH1 0x1 ADD SWAP1 JUMP JUMPDEST PUSH4 0x4E487B71 PUSH1 0xE0 SHL PUSH1 0x0 MSTORE PUSH1 0x11 PUSH1 0x4 MSTORE PUSH1 0x24 PUSH1 0x0 REVERT JUMPDEST SWAP2 PUSH1 0xFF AND SWAP2 DUP3 ISZERO DUP1 ISZERO PUSH2 0x573 JUMPI JUMPDEST PUSH2 0x56B JUMPI PUSH1 0x1 DUP1 PUSH1 0xA0 SHL SUB AND PUSH1 0x0 MSTORE PUSH1 0x0 PUSH1 0x20 MSTORE PUSH1 0x40 PUSH1 0x0 KECCAK256 SWAP1 PUSH1 0x0 MSTORE PUSH1 0x20 MSTORE PUSH1 0x1 PUSH1 0x40 PUSH1 0x0 KECCAK256 SLOAD SWAP2 SHL AND ISZERO ISZERO SWAP1 JUMP JUMPDEST POP POP POP PUSH1 0x0 SWAP1 JUMP JUMPDEST POP PUSH1 0xFE DUP4 GT PUSH2 0x53B JUMP JUMPDEST SWAP1 SWAP2 PUSH1 0xFF AND SWAP2 DUP3 ISZERO PUSH2 0x56B JUMPI PUSH1 0x0 SWAP2 PUSH1 0x1 DUP1 PUSH1 0xA0 SHL SUB AND DUP3 MSTORE PUSH1 0x1 PUSH1 0x20 MSTORE PUSH1 0x40 DUP3 KECCAK256 SWAP1 DUP3 MSTORE PUSH1 0x20 MSTORE PUSH1 0x64 PUSH1 0xFF PUSH1 0x40 DUP4 KECCAK256 SLOAD AND MUL SWAP1 PUSH1 0xFF DUP3 AND SWAP2 DUP3 SUB PUSH2 0x5C1 JUMPI POP DIV SWAP1 JUMP JUMPDEST PUSH4 0x4E487B71 PUSH1 0xE0 SHL DUP2 MSTORE PUSH1 0x11 PUSH1 0x4 MSTORE PUSH1 0x24 SWAP1 REVERT INVALID LOG2 PUSH5 0x6970667358 0x22 SLT KECCAK256 0xF6 0xE5 0xAD SWAP5 0x5E DIV PUSH30 0x1AA051C349E426334737AA887172CABDCA556A9DCF011A545264736F6C63 NUMBER STOP ADDMOD EQ STOP CALLER "},"gasEstimates":{"creation":{"codeDepositCost":"309400","executionCost":"356","totalCost":"309756"},"external":{"completeModule(uint256,uint8)":"51299","completeModulesBatch(uint256,uint8[])":"infinite","enroll(uint256)":"26323","getModulesCompleted(address,uint256)":"2563","getProgressPercentage(address,uint256,uint8)":"2665","getUserCourseData(address,uint256)":"4836","isEnrolled(address,uint256)":"2657","isModuleCompleted(address,uint256,uint8)":"2750","totalModulesCompleted(address,uint256)":"2607"}},"methodIdentifiers":{"completeModule(uint256,uint8)":"37e15d14","completeModulesBatch(uint256,uint8[])":"bb1c7b17","enroll(uint256)":"f57d585b","getModulesCompleted(address,uint256)":"6f5768d9","getProgressPercentage(address,uint256,uint8)":"2a181191","getUserCourseData(address,uint256)":"42b9e6ab","isEnrolled(address,uint256)":"bbb1708c","isModuleCompleted(address,uint256,uint8)":"ae02bd0a","totalModulesCompleted(address,uint256)":"ba588213"}},"storageLayout":{"storage":[{"astId":8,"contract":"contracts/OptimizedSimpleBadge.sol:OptimizedSimpleBadge","label":"userData","offset":0,"slot":"0","type":"t_mapping(t_address,t_mapping(t_uint256,t_uint256))"},{"astId":14,"contract":"contracts/OptimizedSimpleBadge.sol:OptimizedSimpleBadge","label":"totalModulesCompleted","offset":0,"slot":"1","type":"t_mapping(t_address,t_mapping(t_uint256,t_uint8))"}],"types":{"t_address":{"encoding":"inplace","label":"address","numberOfBytes":"20"},"t_mapping(t_address,t_mapping(t_uint256,t_uint256))":{"encoding":"mapping","key":"t_address","label":"mapping(address => mapping(uint256 => uint256))","numberOfBytes":"32","value":"t_mapping(t_uint256,t_uint256)"},"t_mapping(t_address,t_mapping(t_uint256,t_uint8))":{"encoding":"mapping","key":"t_address","label":"mapping(address => mapping(uint256 => uint8))","numberOfBytes":"32","value":"t_mapping(t_uint256,t_uint8)"},"t_mapping(t_uint256,t_uint256)":{"encoding":"mapping","key":"t_uint256","label":"mapping(uint256 => uint256)","numberOfBytes":"32","value":"t_uint256"},"t_mapping(t_uint256,t_uint8)":{"encoding":"mapping","key":"t_uint256","label":"mapping(uint256 => uint8)","numberOfBytes":"32","value":"t_uint8"},"t_uint256":{"encoding":"inplace","label":"uint256","numberOfBytes":"32"},"t_uint8":{"encoding":"inplace","label":"uint8","numberOfBytes":"1"}}},"userdoc":{"kind":"user","methods":{},"version":1}}}}