{
  "_format": "hh-sol-artifact-1",
  "contractName": "SimpleOptimizedBadge",
  "sourceName": "contracts/SimpleOptimizedBadge.sol",
  "abi": [
    {
      "anonymous": false,
      "inputs": [
        {
          "indexed": true,
          "internalType": "address",
          "name": "user",
          "type": "address"
        },
        {
          "indexed": true,
          "internalType": "uint256",
          "name": "courseId",
          "type": "uint256"
        }
      ],
      "name": "Enrolled",
      "type": "event"
    },
    {
      "anonymous": false,
      "inputs": [
        {
          "indexed": true,
          "internalType": "address",
          "name": "user",
          "type": "address"
        },
        {
          "indexed": true,
          "internalType": "uint256",
          "name": "courseId",
          "type": "uint256"
        },
        {
          "indexed": false,
          "internalType": "uint8",
          "name": "moduleIndex",
          "type": "uint8"
        },
        {
          "indexed": false,
          "internalType": "uint8",
          "name": "total",
          "type": "uint8"
        }
      ],
      "name": "ModuleCompleted",
      "type": "event"
    },
    {
      "inputs": [
        {
          "internalType": "uint256",
          "name": "courseId",
          "type": "uint256"
        },
        {
          "internalType": "uint8",
          "name": "moduleIndex",
          "type": "uint8"
        }
      ],
      "name": "completeModule",
      "outputs": [],
      "stateMutability": "nonpayable",
      "type": "function"
    },
    {
      "inputs": [
        {
          "internalType": "uint256",
          "name": "courseId",
          "type": "uint256"
        }
      ],
      "name": "enroll",
      "outputs": [],
      "stateMutability": "nonpayable",
      "type": "function"
    },
    {
      "inputs": [
        {
          "internalType": "address",
          "name": "user",
          "type": "address"
        },
        {
          "internalType": "uint256",
          "name": "courseId",
          "type": "uint256"
        }
      ],
      "name": "getModulesCompleted",
      "outputs": [
        {
          "internalType": "uint8",
          "name": "",
          "type": "uint8"
        }
      ],
      "stateMutability": "view",
      "type": "function"
    },
    {
      "inputs": [
        {
          "internalType": "address",
          "name": "user",
          "type": "address"
        },
        {
          "internalType": "uint256",
          "name": "courseId",
          "type": "uint256"
        }
      ],
      "name": "isEnrolled",
      "outputs": [
        {
          "internalType": "bool",
          "name": "",
          "type": "bool"
        }
      ],
      "stateMutability": "view",
      "type": "function"
    },
    {
      "inputs": [
        {
          "internalType": "address",
          "name": "user",
          "type": "address"
        },
        {
          "internalType": "uint256",
          "name": "courseId",
          "type": "uint256"
        },
        {
          "internalType": "uint8",
          "name": "moduleIndex",
          "type": "uint8"
        }
      ],
      "name": "isModuleCompleted",
      "outputs": [
        {
          "internalType": "bool",
          "name": "",
          "type": "bool"
        }
      ],
      "stateMutability": "view",
      "type": "function"
    },
    {
      "inputs": [
        {
          "internalType": "address",
          "name": "",
          "type": "address"
        },
        {
          "internalType": "uint256",
          "name": "",
          "type": "uint256"
        }
      ],
      "name": "totalCompleted",
      "outputs": [
        {
          "internalType": "uint8",
          "name": "",
          "type": "uint8"
        }
      ],
      "stateMutability": "view",
      "type": "function"
    }
  ],
  "bytecode": "0x608080604052346100165761042d908161001c8239f35b600080fdfe608060408181526004908136101561001657600080fd5b600092833560e01c90816337e15d14146101e8575080636f5768d9146101a3578063a71b77a0146101a3578063ae02bd0a1461015d578063bbb1708c146101135763f57d585b1461006657600080fd5b3461010f576020918260031936011261010b5780359233855284815282852084865281528285205491600183166100d757509060019133865285815283862090858752521790832055337f490a826084db94ebf4ad258b797124c9f62176dd5f68205ffbd52d1260f7ed548380a380f35b60649184519162461bcd60e51b8352820152601060248201526f105b1c9958591e48195b9c9bdb1b195960821b6044820152fd5b8380fd5b8280fd5b83823461015957806003193601126101595760209160019082906001600160a01b0361013d61038b565b1681528085528181206024358252855220541615159051908152f35b5080fd5b8382346101595760603660031901126101595761017861038b565b6044359260ff841684036101a0575060209261019791602435906103a6565b90519015158152f35b80fd5b83823461015957806003193601126101595760209160ff9082906001600160a01b036101cd61038b565b16815260018552818120602435825285522054169051908152f35b849291503461010f578160031936011261010f578335916024359160ff90818416809403610387578315158061037e575b1561034c5750338552602090858252828620858752825282862054600181161561031a576001851b908181166102e4573388528784528488208789528452178387205533865260018252828620858752825282862080548281168381146102d1577f9fcaf64787e5aa22ed93ae2bcbf6a4e537795d24a120800a3914b57a7441cfec96979899506001849101169060ff191617905533875260018252828720868852825282872054169082519485528401523392a380f35b634e487b7160e01b895260118a52602489fd5b845162461bcd60e51b8152808a01859052601060248201526f135bd91d5b194818dbdb5c1b195d195960821b6044820152606490fd5b835162461bcd60e51b8152808901849052600c60248201526b139bdd08195b9c9bdb1b195960a21b6044820152606490fd5b62461bcd60e51b8152602087820152600e60248201526d496e76616c6964206d6f64756c6560901b6044820152606490fd5b50818410610219565b8580fd5b600435906001600160a01b03821682036103a157565b600080fd5b9160ff1691821580156103ec575b6103e45760018060a01b031660005260006020526040600020906000526020526001604060002054911b16151590565b505050600090565b5060ff8310156103b456fea26469706673582212200b73f334ad892f3971f2bb0533cd8ccc86e6ed39300b2080fbb0db290e5aec1064736f6c63430008140033",
  "linkReferences": {},
  "deployedLinkReferences": {}
}