{
  "_format": "hh-sol-artifact-1",
  "contractName": "OptimizedSimpleBadge",
  "sourceName": "contracts/OptimizedSimpleBadge.sol",
  "abi": [
    {
      "inputs": [],
      "name": "AlreadyEnrolled",
      "type": "error"
    },
    {
      "inputs": [],
      "name": "InvalidModule",
      "type": "error"
    },
    {
      "inputs": [],
      "name": "ModuleAlreadyCompleted",
      "type": "error"
    },
    {
      "inputs": [],
      "name": "NotEnrolled",
      "type": "error"
    },
    {
      "anonymous": false,
      "inputs": [
        {
          "indexed": true,
          "internalType": "address",
          "name": "user",
          "type": "address"
        },
        {
          "indexed": true,
          "internalType": "uint256",
          "name": "courseId",
          "type": "uint256"
        }
      ],
      "name": "Enrolled",
      "type": "event"
    },
    {
      "anonymous": false,
      "inputs": [
        {
          "indexed": true,
          "internalType": "address",
          "name": "user",
          "type": "address"
        },
        {
          "indexed": true,
          "internalType": "uint256",
          "name": "courseId",
          "type": "uint256"
        },
        {
          "indexed": false,
          "internalType": "uint8",
          "name": "moduleIndex",
          "type": "uint8"
        },
        {
          "indexed": false,
          "internalType": "uint8",
          "name": "total",
          "type": "uint8"
        }
      ],
      "name": "ModuleCompleted",
      "type": "event"
    },
    {
      "inputs": [
        {
          "internalType": "uint256",
          "name": "courseId",
          "type": "uint256"
        },
        {
          "internalType": "uint8",
          "name": "moduleIndex",
          "type": "uint8"
        }
      ],
      "name": "completeModule",
      "outputs": [],
      "stateMutability": "nonpayable",
      "type": "function"
    },
    {
      "inputs": [
        {
          "internalType": "uint256",
          "name": "courseId",
          "type": "uint256"
        },
        {
          "internalType": "uint8[]",
          "name": "moduleIndices",
          "type": "uint8[]"
        }
      ],
      "name": "completeModulesBatch",
      "outputs": [],
      "stateMutability": "nonpayable",
      "type": "function"
    },
    {
      "inputs": [
        {
          "internalType": "uint256",
          "name": "courseId",
          "type": "uint256"
        }
      ],
      "name": "enroll",
      "outputs": [],
      "stateMutability": "nonpayable",
      "type": "function"
    },
    {
      "inputs": [
        {
          "internalType": "address",
          "name": "user",
          "type": "address"
        },
        {
          "internalType": "uint256",
          "name": "courseId",
          "type": "uint256"
        }
      ],
      "name": "getModulesCompleted",
      "outputs": [
        {
          "internalType": "uint8",
          "name": "",
          "type": "uint8"
        }
      ],
      "stateMutability": "view",
      "type": "function"
    },
    {
      "inputs": [
        {
          "internalType": "address",
          "name": "user",
          "type": "address"
        },
        {
          "internalType": "uint256",
          "name": "courseId",
          "type": "uint256"
        },
        {
          "internalType": "uint8",
          "name": "totalModules",
          "type": "uint8"
        }
      ],
      "name": "getProgressPercentage",
      "outputs": [
        {
          "internalType": "uint8",
          "name": "",
          "type": "uint8"
        }
      ],
      "stateMutability": "view",
      "type": "function"
    },
    {
      "inputs": [
        {
          "internalType": "address",
          "name": "user",
          "type": "address"
        },
        {
          "internalType": "uint256",
          "name": "courseId",
          "type": "uint256"
        }
      ],
      "name": "getUserCourseData",
      "outputs": [
        {
          "internalType": "bool",
          "name": "enrolled",
          "type": "bool"
        },
        {
          "internalType": "uint8",
          "name": "modulesCompleted",
          "type": "uint8"
        },
        {
          "internalType": "uint256",
          "name": "completionBitmap",
          "type": "uint256"
        }
      ],
      "stateMutability": "view",
      "type": "function"
    },
    {
      "inputs": [
        {
          "internalType": "address",
          "name": "user",
          "type": "address"
        },
        {
          "internalType": "uint256",
          "name": "courseId",
          "type": "uint256"
        }
      ],
      "name": "isEnrolled",
      "outputs": [
        {
          "internalType": "bool",
          "name": "",
          "type": "bool"
        }
      ],
      "stateMutability": "view",
      "type": "function"
    },
    {
      "inputs": [
        {
          "internalType": "address",
          "name": "user",
          "type": "address"
        },
        {
          "internalType": "uint256",
          "name": "courseId",
          "type": "uint256"
        },
        {
          "internalType": "uint8",
          "name": "moduleIndex",
          "type": "uint8"
        }
      ],
      "name": "isModuleCompleted",
      "outputs": [
        {
          "internalType": "bool",
          "name": "",
          "type": "bool"
        }
      ],
      "stateMutability": "view",
      "type": "function"
    },
    {
      "inputs": [
        {
          "internalType": "address",
          "name": "",
          "type": "address"
        },
        {
          "internalType": "uint256",
          "name": "",
          "type": "uint256"
        }
      ],
      "name": "totalModulesCompleted",
      "outputs": [
        {
          "internalType": "uint8",
          "name": "",
          "type": "uint8"
        }
      ],
      "stateMutability": "view",
      "type": "function"
    }
  ],
  "bytecode": "0x608080604052346100165761060b908161001c8239f35b600080fdfe60406080815260048036101561001457600080fd5b600091823560e01c80632a1811911461049157806337e15d141461038557806342b9e6ab146103145780636f5768d9146102aa578063ae02bd0a146102ef578063ba588213146102aa578063bb1c7b1714610151578063bbb1708c146101075763f57d585b1461008357600080fd5b3461010357602036600319011261010357813591338452836020528184208385526020528184205490600182166100f55750600190338552846020528285208486526020521790832055337f490a826084db94ebf4ad258b797124c9f62176dd5f68205ffbd52d1260f7ed548380a380f35b8251636d6d97d960e01b8152fd5b8280fd5b83823461014d578060031936011261014d5760209160019082906001600160a01b036101316104b7565b1681528085528181206024358252855220541615159051908152f35b5080fd5b50903461010357816003193601126101035760249167ffffffffffffffff9190813584358481116102a657366023820112156102a657808401359485116102a657600594368782881b840101116102a257338852602091888352848920848a5283528489205460019283821615610292578a928b998c5b83811061022a5750505050338a52898452858a20858b528452178489205533885281528287209187525284209260ff8454931660ff8416019160ff831161021957505060ff169060ff191617905580f35b634e487b7160e01b86526011905284fd5b8c81831b8401013560ff811680910361028e5780158015610284575b6102745787901b8086161561025e575b5086016101c8565b61026d9088929d971796610506565b9b90610256565b8a51631bb2296560e31b81528c90fd5b5060fe8111610246565b8e80fd5b86516364a85fc960e11b81528890fd5b8780fd5b8680fd5b83823461014d578060031936011261014d5760209160ff9082906001600160a01b036102d46104b7565b16815260018552818120602435825285522054169051908152f35b83823461014d5760209061030b610305366104d2565b9161052d565b90519015158152f35b83823461014d578060031936011261014d57908160ff6060936103356104b7565b936024359460018060a01b03169485825281602052828220818352602052828220549582526001602052828220908252602052205416918151926001821615158452602084015260011c90820152f35b5082903461014d578060031936011261014d578235906024359060ff821680920361048d573384526020848152818520848652815281852054600181161561047d5783158015610473575b610463576001841b9081811661045357907f9fcaf64787e5aa22ed93ae2bcbf6a4e537795d24a120800a3914b57a7441cfec939291338852878352838820878952835217828720553386526001815281862085875281528186209081549160ff61043b818516610506565b16809360ff191617905582519485528401523392a380f35b83516345673ec160e11b81528890fd5b8251631bb2296560e31b81528790fd5b5060fe84116103d0565b82516364a85fc960e11b81528790fd5b8380fd5b83823461014d5760209060ff6104af6104a9366104d2565b9161057d565b915191168152f35b600435906001600160a01b03821682036104cd57565b600080fd5b60609060031901126104cd576004356001600160a01b03811681036104cd57906024359060443560ff811681036104cd5790565b60ff1660ff81146105175760010190565b634e487b7160e01b600052601160045260246000fd5b9160ff169182158015610573575b61056b5760018060a01b031660005260006020526040600020906000526020526001604060002054911b16151590565b505050600090565b5060fe831161053b565b909160ff1691821561056b5760009160018060a01b03168252600160205260408220908252602052606460ff604083205416029060ff82169182036105c157500490565b634e487b7160e01b81526011600452602490fdfea2646970667358221220f6e5ad945e047d1aa051c349e426334737aa887172cabdca556a9dcf011a545264736f6c63430008140033",
  "linkReferences": {},
  "deployedLinkReferences": {}
}