{
  "_format": "hh-sol-artifact-1",
  "contractName": "MilestoneBadge",
  "sourceName": "contracts/MilestoneBadge.sol",
  "abi": [
    {
      "inputs": [
        {
          "internalType": "string",
          "name": "uri_",
          "type": "string"
        }
      ],
      "stateMutability": "nonpayable",
      "type": "constructor"
    },
    {
      "inputs": [
        {
          "internalType": "address",
          "name": "sender",
          "type": "address"
        },
        {
          "internalType": "uint256",
          "name": "balance",
          "type": "uint256"
        },
        {
          "internalType": "uint256",
          "name": "needed",
          "type": "uint256"
        },
        {
          "internalType": "uint256",
          "name": "tokenId",
          "type": "uint256"
        }
      ],
      "name": "ERC1155InsufficientBalance",
      "type": "error"
    },
    {
      "inputs": [
        {
          "internalType": "address",
          "name": "approver",
          "type": "address"
        }
      ],
      "name": "ERC1155InvalidApprover",
      "type": "error"
    },
    {
      "inputs": [
        {
          "internalType": "uint256",
          "name": "idsLength",
          "type": "uint256"
        },
        {
          "internalType": "uint256",
          "name": "valuesLength",
          "type": "uint256"
        }
      ],
      "name": "ERC1155InvalidArrayLength",
      "type": "error"
    },
    {
      "inputs": [
        {
          "internalType": "address",
          "name": "operator",
          "type": "address"
        }
      ],
      "name": "ERC1155InvalidOperator",
      "type": "error"
    },
    {
      "inputs": [
        {
          "internalType": "address",
          "name": "receiver",
          "type": "address"
        }
      ],
      "name": "ERC1155InvalidReceiver",
      "type": "error"
    },
    {
      "inputs": [
        {
          "internalType": "address",
          "name": "sender",
          "type": "address"
        }
      ],
      "name": "ERC1155InvalidSender",
      "type": "error"
    },
    {
      "inputs": [
        {
          "internalType": "address",
          "name": "operator",
          "type": "address"
        },
        {
          "internalType": "address",
          "name": "owner",
          "type": "address"
        }
      ],
      "name": "ERC1155MissingApprovalForAll",
      "type": "error"
    },
    {
      "inputs": [
        {
          "internalType": "address",
          "name": "owner",
          "type": "address"
        }
      ],
      "name": "OwnableInvalidOwner",
      "type": "error"
    },
    {
      "inputs": [
        {
          "internalType": "address",
          "name": "account",
          "type": "address"
        }
      ],
      "name": "OwnableUnauthorizedAccount",
      "type": "error"
    },
    {
      "anonymous": false,
      "inputs": [
        {
          "indexed": true,
          "internalType": "address",
          "name": "account",
          "type": "address"
        },
        {
          "indexed": true,
          "internalType": "address",
          "name": "operator",
          "type": "address"
        },
        {
          "indexed": false,
          "internalType": "bool",
          "name": "approved",
          "type": "bool"
        }
      ],
      "name": "ApprovalForAll",
      "type": "event"
    },
    {
      "anonymous": false,
      "inputs": [
        {
          "indexed": true,
          "internalType": "address",
          "name": "previousOwner",
          "type": "address"
        },
        {
          "indexed": true,
          "internalType": "address",
          "name": "newOwner",
          "type": "address"
        }
      ],
      "name": "OwnershipTransferred",
      "type": "event"
    },
    {
      "anonymous": false,
      "inputs": [
        {
          "indexed": true,
          "internalType": "address",
          "name": "operator",
          "type": "address"
        },
        {
          "indexed": true,
          "internalType": "address",
          "name": "from",
          "type": "address"
        },
        {
          "indexed": true,
          "internalType": "address",
          "name": "to",
          "type": "address"
        },
        {
          "indexed": false,
          "internalType": "uint256[]",
          "name": "ids",
          "type": "uint256[]"
        },
        {
          "indexed": false,
          "internalType": "uint256[]",
          "name": "values",
          "type": "uint256[]"
        }
      ],
      "name": "TransferBatch",
      "type": "event"
    },
    {
      "anonymous": false,
      "inputs": [
        {
          "indexed": true,
          "internalType": "address",
          "name": "operator",
          "type": "address"
        },
        {
          "indexed": true,
          "internalType": "address",
          "name": "from",
          "type": "address"
        },
        {
          "indexed": true,
          "internalType": "address",
          "name": "to",
          "type": "address"
        },
        {
          "indexed": false,
          "internalType": "uint256",
          "name": "id",
          "type": "uint256"
        },
        {
          "indexed": false,
          "internalType": "uint256",
          "name": "value",
          "type": "uint256"
        }
      ],
      "name": "TransferSingle",
      "type": "event"
    },
    {
      "anonymous": false,
      "inputs": [
        {
          "indexed": false,
          "internalType": "string",
          "name": "value",
          "type": "string"
        },
        {
          "indexed": true,
          "internalType": "uint256",
          "name": "id",
          "type": "uint256"
        }
      ],
      "name": "URI",
      "type": "event"
    },
    {
      "inputs": [
        {
          "internalType": "address",
          "name": "account",
          "type": "address"
        },
        {
          "internalType": "uint256",
          "name": "id",
          "type": "uint256"
        }
      ],
      "name": "balanceOf",
      "outputs": [
        {
          "internalType": "uint256",
          "name": "",
          "type": "uint256"
        }
      ],
      "stateMutability": "view",
      "type": "function"
    },
    {
      "inputs": [
        {
          "internalType": "address[]",
          "name": "accounts",
          "type": "address[]"
        },
        {
          "internalType": "uint256[]",
          "name": "ids",
          "type": "uint256[]"
        }
      ],
      "name": "balanceOfBatch",
      "outputs": [
        {
          "internalType": "uint256[]",
          "name": "",
          "type": "uint256[]"
        }
      ],
      "stateMutability": "view",
      "type": "function"
    },
    {
      "inputs": [
        {
          "internalType": "uint256",
          "name": "tokenId",
          "type": "uint256"
        }
      ],
      "name": "claim",
      "outputs": [],
      "stateMutability": "nonpayable",
      "type": "function"
    },
    {
      "inputs": [
        {
          "internalType": "address",
          "name": "",
          "type": "address"
        },
        {
          "internalType": "uint256",
          "name": "",
          "type": "uint256"
        }
      ],
      "name": "claimed",
      "outputs": [
        {
          "internalType": "bool",
          "name": "",
          "type": "bool"
        }
      ],
      "stateMutability": "view",
      "type": "function"
    },
    {
      "inputs": [
        {
          "internalType": "address",
          "name": "account",
          "type": "address"
        },
        {
          "internalType": "address",
          "name": "operator",
          "type": "address"
        }
      ],
      "name": "isApprovedForAll",
      "outputs": [
        {
          "internalType": "bool",
          "name": "",
          "type": "bool"
        }
      ],
      "stateMutability": "view",
      "type": "function"
    },
    {
      "inputs": [],
      "name": "owner",
      "outputs": [
        {
          "internalType": "address",
          "name": "",
          "type": "address"
        }
      ],
      "stateMutability": "view",
      "type": "function"
    },
    {
      "inputs": [],
      "name": "renounceOwnership",
      "outputs": [],
      "stateMutability": "nonpayable",
      "type": "function"
    },
    {
      "inputs": [
        {
          "internalType": "address",
          "name": "from",
          "type": "address"
        },
        {
          "internalType": "address",
          "name": "to",
          "type": "address"
        },
        {
          "internalType": "uint256[]",
          "name": "ids",
          "type": "uint256[]"
        },
        {
          "internalType": "uint256[]",
          "name": "values",
          "type": "uint256[]"
        },
        {
          "internalType": "bytes",
          "name": "data",
          "type": "bytes"
        }
      ],
      "name": "safeBatchTransferFrom",
      "outputs": [],
      "stateMutability": "nonpayable",
      "type": "function"
    },
    {
      "inputs": [
        {
          "internalType": "address",
          "name": "from",
          "type": "address"
        },
        {
          "internalType": "address",
          "name": "to",
          "type": "address"
        },
        {
          "internalType": "uint256",
          "name": "id",
          "type": "uint256"
        },
        {
          "internalType": "uint256",
          "name": "value",
          "type": "uint256"
        },
        {
          "internalType": "bytes",
          "name": "data",
          "type": "bytes"
        }
      ],
      "name": "safeTransferFrom",
      "outputs": [],
      "stateMutability": "nonpayable",
      "type": "function"
    },
    {
      "inputs": [
        {
          "internalType": "address",
          "name": "operator",
          "type": "address"
        },
        {
          "internalType": "bool",
          "name": "approved",
          "type": "bool"
        }
      ],
      "name": "setApprovalForAll",
      "outputs": [],
      "stateMutability": "nonpayable",
      "type": "function"
    },
    {
      "inputs": [
        {
          "internalType": "bytes4",
          "name": "interfaceId",
          "type": "bytes4"
        }
      ],
      "name": "supportsInterface",
      "outputs": [
        {
          "internalType": "bool",
          "name": "",
          "type": "bool"
        }
      ],
      "stateMutability": "view",
      "type": "function"
    },
    {
      "inputs": [
        {
          "internalType": "address",
          "name": "newOwner",
          "type": "address"
        }
      ],
      "name": "transferOwnership",
      "outputs": [],
      "stateMutability": "nonpayable",
      "type": "function"
    },
    {
      "inputs": [
        {
          "internalType": "uint256",
          "name": "",
          "type": "uint256"
        }
      ],
      "name": "uri",
      "outputs": [
        {
          "internalType": "string",
          "name": "",
          "type": "string"
        }
      ],
      "stateMutability": "view",
      "type": "function"
    }
  ],
  "bytecode": "0x6080604052346200027c57620015eb803803806200001d8162000281565b928339810190602080828403126200027c5781516001600160401b03928382116200027c570192601f908082860112156200027c5784518481116200025157601f1995620000718285018816860162000281565b928284528583830101116200027c57849060005b838110620002675750506000918301015280519384116200025157600254926001938481811c9116801562000246575b828210146200023057838111620001e4575b5080928511600114620001795750839450908392916000946200016d575b50501b916000199060031b1c1916176002555b3315620001545760038054336001600160a01b03198216811790925560405191906001600160a01b03167f8be0079c531659141344cd1fd0a4f28419497f9722a3daafe3b4186f6b6457e0600080a36113439081620002a88239f35b604051631e4fbdf760e01b815260006004820152602490fd5b015192503880620000e5565b929484908116600260005284600020946000905b88838310620001c95750505010620001af575b505050811b01600255620000f8565b015160001960f88460031b161c19169055388080620001a0565b8587015188559096019594850194879350908101906200018d565b6002600052816000208480880160051c82019284891062000226575b0160051c019085905b82811062000219575050620000c7565b6000815501859062000209565b9250819262000200565b634e487b7160e01b600052602260045260246000fd5b90607f1690620000b5565b634e487b7160e01b600052604160045260246000fd5b81810183015185820184015286920162000085565b600080fd5b6040519190601f01601f191682016001600160401b03811183821017620002515760405256fe6080604052600436101561001257600080fd5b60003560e01c8062fdd58e146100e657806301ffc9a7146100e15780630e89341c146100dc5780632eb2c2d6146100d7578063379607f5146100d25780634dd6c8de146100cd5780634e1273f4146100c8578063715018a6146100c35780638da5cb5b146100be578063a22cb465146100b9578063e985e9c5146100b4578063f242432a146100af5763f2fde38b146100aa57600080fd5b610a59565b61093b565b6108de565b610822565b6107f9565b610798565b6106de565b61064c565b610596565b61046d565b610251565b61018f565b610130565b600435906001600160a01b038216820361010157565b600080fd5b602435906001600160a01b038216820361010157565b35906001600160a01b038216820361010157565b3461010157604036600319011261010157602061017461014e6100eb565b6024356000526000835260406000209060018060a01b0316600052602052604060002090565b54604051908152f35b6001600160e01b031981160361010157565b346101015760203660031901126101015760206004356101ae8161017d565b63ffffffff60e01b16636cdb3d1360e11b81149081156101ec575b81156101db575b506040519015158152f35b6301ffc9a760e01b149050386101d0565b6303a24d0760e21b811491506101c9565b919082519283825260005b848110610229575050826000602080949584010152601f8019910116010190565b602081830181015184830182015201610208565b90602061024e9281815201906101fd565b90565b3461010157602080600319360112610101576040519060009060025460019181831c9280831692831561034d575b828510841461033957848752602087019390811561031a57506001146102c0575b6102bc866102b08188038261036d565b6040519182918261023d565b0390f35b6002600090815294509192917f405787fa12a823e0f2b7631cc41b3ba8828b3321ca811111fa75cd3aa3bb5ace5b83861061030957505050910190506102b0826102bc386102a0565b8054858701529482019481016102ee565b60ff1916845250505090151560051b0190506102b0826102bc386102a0565b634e487b7160e01b86526022600452602486fd5b93607f169361027f565b634e487b7160e01b600052604160045260246000fd5b90601f8019910116810190811067ffffffffffffffff82111761038f57604052565b610357565b67ffffffffffffffff811161038f5760051b60200190565b81601f82011215610101578035916103c383610394565b926103d1604051948561036d565b808452602092838086019260051b820101928311610101578301905b8282106103fb575050505090565b813581529083019083016103ed565b67ffffffffffffffff811161038f57601f01601f191660200190565b81601f820112156101015780359061043d8261040a565b9261044b604051948561036d565b8284526020838301011161010157816000926020809301838601378301015290565b346101015760a0366003190112610101576104866100eb565b61048e610106565b906044359167ffffffffffffffff90818411610101576104b3600494369086016103ac565b90606435838111610101576104cb90369087016103ac565b92608435908111610101576104e39036908701610426565b936001600160a01b03808216903382141580610572575b6105455783161561052d5715610516576105149550610c2c565b005b604051626a0d4560e21b8152600081880152602490fd5b604051632bfa23e760e11b8152600081890152602490fd5b6040805163711bec9160e11b815233818b019081526001600160a01b038616602082015290918291010390fd5b50600082815260016020908152604080832033845290915290205460ff16156104fa565b346101015760203660031901126101015760043560009033825260046020526040822081835260205260ff604083205416610615573360009081526004602052604090206106129190610603906105f69083600052602052604060002090565b805460ff19166001179055565b61060b610ef5565b90336111c6565b80f35b60405162461bcd60e51b815260206004820152600f60248201526e105b1c9958591e4818db185a5b5959608a1b6044820152606490fd5b34610101576040366003190112610101576001600160a01b0361066d6100eb565b1660005260046020526040600020602435600052602052602060ff604060002054166040519015158152f35b90815180825260208080930193019160005b8281106106b9575050505090565b8351855293810193928101926001016106ab565b90602061024e928181520190610699565b346101015760403660031901126101015760043567ffffffffffffffff808211610101573660238301121561010157816004013561071b81610394565b92610729604051948561036d565b81845260209160248386019160051b8301019136831161010157602401905b8282106107815785602435868111610101576102bc9161076f6107759236906004016103ac565b90610b67565b604051918291826106cd565b83809161078d8461011c565b815201910190610748565b34610101576000806003193601126107f6576107b2610ae7565b600380546001600160a01b0319811690915581906001600160a01b03167f8be0079c531659141344cd1fd0a4f28419497f9722a3daafe3b4186f6b6457e08280a380f35b80fd5b34610101576000366003190112610101576003546040516001600160a01b039091168152602090f35b346101015760403660031901126101015761083b6100eb565b6024359081151590818303610101576001600160a01b0381169283156108c6576108876108989233600052600160205260406000209060018060a01b0316600052602052604060002090565b9060ff801983541691151516179055565b6040519081527f17307eab39ab6107e8899845ad3d59bd9653f200f220920489ca2b5937696c3160203392a3005b60405162ced3e160e81b815260006004820152602490fd5b3461010157604036600319011261010157602060ff61092f6108fe6100eb565b610906610106565b6001600160a01b0391821660009081526001865260408082209290931681526020919091522090565b54166040519015158152f35b346101015760a0366003190112610101576109546100eb565b61095c610106565b60843567ffffffffffffffff81116101015761097c903690600401610426565b906001600160a01b03838116903382141580610a35575b610a0e578216156109f557156109dd57610514926109d56064356044359160405192600184526020840152604083019160018352606084015260808301604052565b929091610c2c565b604051626a0d4560e21b815260006004820152602490fd5b604051632bfa23e760e11b815260006004820152602490fd5b60405163711bec9160e11b81523360048201526001600160a01b0386166024820152604490fd5b50600082815260016020908152604080832033845290915290205460ff1615610993565b3461010157602036600319011261010157610a726100eb565b610a7a610ae7565b6001600160a01b03908116908115610ace57600354826bffffffffffffffffffffffff60a01b821617600355167f8be0079c531659141344cd1fd0a4f28419497f9722a3daafe3b4186f6b6457e0600080a3005b604051631e4fbdf760e01b815260006004820152602490fd5b6003546001600160a01b03163303610afb57565b60405163118cdaa760e01b8152336004820152602490fd5b634e487b7160e01b600052601160045260246000fd5b6000198114610b385760010190565b610b13565b8051821015610b515760209160051b010190565b634e487b7160e01b600052603260045260246000fd5b91909180518351808203610c0a575050805190610b8382610394565b91610b91604051938461036d565b808352610ba0601f1991610394565b0190602091368385013760005b8151811015610c0257600581901b8281018401519087018401516000908152602081815260408083206001600160a01b0390941683529290522054610bfd9190610bf78287610b3d565b52610b29565b610bad565b509193505050565b604051635b05999160e01b815260048101919091526024810191909152604490fd5b949190918151845190818103610c0a57505060005b8251811015610d5457600581901b83810160209081015191870101516001600160a01b03929186908a8516610ccd575b610c84948216610c89575b505050610b29565b610c41565b610cc391610ca4610cbb926000526000602052604060002090565b9060018060a01b0316600052602052604060002090565b918254610e4a565b9055388581610c7c565b9192939050610cea8a610ca4846000526000602052604060002090565b54838110610d1d5791879184610c8496959403610d158d610ca4856000526000602052604060002090565b559450610c71565b6040516303dee4c560e01b81526001600160a01b038c16600482015260248101919091526044810184905260648101839052608490fd5b509491939290936001855114600014610dff576020858101518382015160408051928352928201526001600160a01b03838116929086169133917fc3d58168c5ae7397731d063d5bbf3d657854427343f4c083240f7aacaa2d0f6291a45b6001600160a01b038116610dc8575b5050505050565b8451600103610dee57602080610de49601519201519233611043565b3880808080610dc1565b610dfa9491923361118f565b610de4565b6040516001600160a01b03828116919085169033907f4a39dc06d4c0dbc64b70af90fd698a233a518aa5d07e595d983b8c0526c8f7fb9080610e42888c83610e57565b0390a4610db2565b91908201809211610b3857565b9091610e6e61024e93604084526040840190610699565b916020818403910152610699565b90816020910312610101575161024e8161017d565b909260a09261024e9594600180861b03168352600060208401526040830152606082015281608082015201906101fd565b919261024e95949160a094600180871b0380921685521660208401526040830152606082015281608082015201906101fd565b604051906020820182811067ffffffffffffffff82111761038f5760405260008252565b3d15610f44573d90610f2a8261040a565b91610f38604051938461036d565b82523d6000602084013e565b606090565b9293919093843b610f5b575050505050565b602091610f7e604051948593849363f23a6e6160e01b9889865260048601610e91565b038160006001600160a01b0388165af160009181611013575b50610fd65782610fa5610f19565b8051919082610fcf57604051632bfa23e760e11b81526001600160a01b0383166004820152602490fd5b6020915001fd5b6001600160e01b03191603610ff057503880808080610dc1565b604051632bfa23e760e11b81526001600160a01b03919091166004820152602490fd5b61103591925060203d811161103c575b61102d818361036d565b810190610e7c565b9038610f97565b503d611023565b939290949194853b611058575b505050505050565b61107b602093604051958694859463f23a6e6160e01b998a875260048701610ec2565b038160006001600160a01b0388165af1600091816110bd575b506110a25782610fa5610f19565b6001600160e01b03191603610ff05750388080808080611050565b6110d691925060203d811161103c5761102d818361036d565b9038611094565b9261110c61024e959361111a9360018060a01b031686526000602087015260a0604087015260a0860190610699565b908482036060860152610699565b9160808184039101526101fd565b939061024e959361110c9161111a9460018060a01b03809216885216602087015260a0604087015260a0860190610699565b9293919093843b61116c575050505050565b602091610f7e604051948593849363bc197c8160e01b98898652600486016110dd565b939290949194853b6111a357505050505050565b61107b602093604051958694859463bc197c8160e01b998a875260048701611128565b6001600160a01b038116929183156109f557611201604051916001835260208301526040820190600182526001606084015260808301604052565b928151845190818103610c0a57505060005b825181101561125857806112539160051b61124c610cbb87610ca4602080868b010151958c010151946000526000602052604060002090565b9055610b29565b611213565b5092919360018251146000146112d15760208281015184820151604080519283529282015260009133917fc3d58168c5ae7397731d063d5bbf3d657854427343f4c083240f7aacaa2d0f629190a45b80516001036112c757906020806112c5959301519101519133610f49565b565b6112c5933361115a565b60006040517f4a39dc06d4c0dbc64b70af90fd698a233a518aa5d07e595d983b8c0526c8f7fb339180611305888883610e57565b0390a46112a756fea2646970667358221220919d7fae3004e32b71f53e57d95a47a0986ad2b5b98e0a9a2fc113362fbd3e3164736f6c63430008140033",
  "linkReferences": {},
  "deployedLinkReferences": {}
}