{
  "_format": "hh-sol-artifact-1",
  "contractName": "MilestoneBadge",
  "sourceName": "contracts/MilestoneBadge.sol",
  "abi": [
    {
      "inputs": [
        {
          "internalType": "string",
          "name": "uri_",
          "type": "string"
        }
      ],
      "stateMutability": "nonpayable",
      "type": "constructor"
    },
    {
      "inputs": [
        {
          "internalType": "address",
          "name": "sender",
          "type": "address"
        },
        {
          "internalType": "uint256",
          "name": "balance",
          "type": "uint256"
        },
        {
          "internalType": "uint256",
          "name": "needed",
          "type": "uint256"
        },
        {
          "internalType": "uint256",
          "name": "tokenId",
          "type": "uint256"
        }
      ],
      "name": "ERC1155InsufficientBalance",
      "type": "error"
    },
    {
      "inputs": [
        {
          "internalType": "address",
          "name": "approver",
          "type": "address"
        }
      ],
      "name": "ERC1155InvalidApprover",
      "type": "error"
    },
    {
      "inputs": [
        {
          "internalType": "uint256",
          "name": "idsLength",
          "type": "uint256"
        },
        {
          "internalType": "uint256",
          "name": "valuesLength",
          "type": "uint256"
        }
      ],
      "name": "ERC1155InvalidArrayLength",
      "type": "error"
    },
    {
      "inputs": [
        {
          "internalType": "address",
          "name": "operator",
          "type": "address"
        }
      ],
      "name": "ERC1155InvalidOperator",
      "type": "error"
    },
    {
      "inputs": [
        {
          "internalType": "address",
          "name": "receiver",
          "type": "address"
        }
      ],
      "name": "ERC1155InvalidReceiver",
      "type": "error"
    },
    {
      "inputs": [
        {
          "internalType": "address",
          "name": "sender",
          "type": "address"
        }
      ],
      "name": "ERC1155InvalidSender",
      "type": "error"
    },
    {
      "inputs": [
        {
          "internalType": "address",
          "name": "operator",
          "type": "address"
        },
        {
          "internalType": "address",
          "name": "owner",
          "type": "address"
        }
      ],
      "name": "ERC1155MissingApprovalForAll",
      "type": "error"
    },
    {
      "inputs": [
        {
          "internalType": "address",
          "name": "owner",
          "type": "address"
        }
      ],
      "name": "OwnableInvalidOwner",
      "type": "error"
    },
    {
      "inputs": [
        {
          "internalType": "address",
          "name": "account",
          "type": "address"
        }
      ],
      "name": "OwnableUnauthorizedAccount",
      "type": "error"
    },
    {
      "anonymous": false,
      "inputs": [
        {
          "indexed": true,
          "internalType": "address",
          "name": "account",
          "type": "address"
        },
        {
          "indexed": true,
          "internalType": "address",
          "name": "operator",
          "type": "address"
        },
        {
          "indexed": false,
          "internalType": "bool",
          "name": "approved",
          "type": "bool"
        }
      ],
      "name": "ApprovalForAll",
      "type": "event"
    },
    {
      "anonymous": false,
      "inputs": [
        {
          "indexed": true,
          "internalType": "address",
          "name": "user",
          "type": "address"
        },
        {
          "indexed": true,
          "internalType": "uint256",
          "name": "courseTokenId",
          "type": "uint256"
        }
      ],
      "name": "CourseEnrolled",
      "type": "event"
    },
    {
      "anonymous": false,
      "inputs": [
        {
          "indexed": true,
          "internalType": "address",
          "name": "user",
          "type": "address"
        },
        {
          "indexed": true,
          "internalType": "uint256",
          "name": "courseTokenId",
          "type": "uint256"
        },
        {
          "indexed": false,
          "internalType": "uint256",
          "name": "moduleIndex",
          "type": "uint256"
        },
        {
          "indexed": false,
          "internalType": "uint256",
          "name": "newBalance",
          "type": "uint256"
        }
      ],
      "name": "ModuleClaimed",
      "type": "event"
    },
    {
      "anonymous": false,
      "inputs": [
        {
          "indexed": true,
          "internalType": "address",
          "name": "previousOwner",
          "type": "address"
        },
        {
          "indexed": true,
          "internalType": "address",
          "name": "newOwner",
          "type": "address"
        }
      ],
      "name": "OwnershipTransferred",
      "type": "event"
    },
    {
      "anonymous": false,
      "inputs": [
        {
          "indexed": true,
          "internalType": "address",
          "name": "operator",
          "type": "address"
        },
        {
          "indexed": true,
          "internalType": "address",
          "name": "from",
          "type": "address"
        },
        {
          "indexed": true,
          "internalType": "address",
          "name": "to",
          "type": "address"
        },
        {
          "indexed": false,
          "internalType": "uint256[]",
          "name": "ids",
          "type": "uint256[]"
        },
        {
          "indexed": false,
          "internalType": "uint256[]",
          "name": "values",
          "type": "uint256[]"
        }
      ],
      "name": "TransferBatch",
      "type": "event"
    },
    {
      "anonymous": false,
      "inputs": [
        {
          "indexed": true,
          "internalType": "address",
          "name": "operator",
          "type": "address"
        },
        {
          "indexed": true,
          "internalType": "address",
          "name": "from",
          "type": "address"
        },
        {
          "indexed": true,
          "internalType": "address",
          "name": "to",
          "type": "address"
        },
        {
          "indexed": false,
          "internalType": "uint256",
          "name": "id",
          "type": "uint256"
        },
        {
          "indexed": false,
          "internalType": "uint256",
          "name": "value",
          "type": "uint256"
        }
      ],
      "name": "TransferSingle",
      "type": "event"
    },
    {
      "anonymous": false,
      "inputs": [
        {
          "indexed": false,
          "internalType": "string",
          "name": "value",
          "type": "string"
        },
        {
          "indexed": true,
          "internalType": "uint256",
          "name": "id",
          "type": "uint256"
        }
      ],
      "name": "URI",
      "type": "event"
    },
    {
      "inputs": [
        {
          "internalType": "address",
          "name": "to",
          "type": "address"
        },
        {
          "internalType": "uint256",
          "name": "tokenId",
          "type": "uint256"
        },
        {
          "internalType": "uint256",
          "name": "amount",
          "type": "uint256"
        }
      ],
      "name": "adminMint",
      "outputs": [],
      "stateMutability": "nonpayable",
      "type": "function"
    },
    {
      "inputs": [
        {
          "internalType": "address",
          "name": "account",
          "type": "address"
        },
        {
          "internalType": "uint256",
          "name": "id",
          "type": "uint256"
        }
      ],
      "name": "balanceOf",
      "outputs": [
        {
          "internalType": "uint256",
          "name": "",
          "type": "uint256"
        }
      ],
      "stateMutability": "view",
      "type": "function"
    },
    {
      "inputs": [
        {
          "internalType": "address[]",
          "name": "accounts",
          "type": "address[]"
        },
        {
          "internalType": "uint256[]",
          "name": "ids",
          "type": "uint256[]"
        }
      ],
      "name": "balanceOfBatch",
      "outputs": [
        {
          "internalType": "uint256[]",
          "name": "",
          "type": "uint256[]"
        }
      ],
      "stateMutability": "view",
      "type": "function"
    },
    {
      "inputs": [
        {
          "internalType": "uint256",
          "name": "tokenId",
          "type": "uint256"
        }
      ],
      "name": "claim",
      "outputs": [],
      "stateMutability": "nonpayable",
      "type": "function"
    },
    {
      "inputs": [
        {
          "internalType": "uint256",
          "name": "courseTokenId",
          "type": "uint256"
        }
      ],
      "name": "claimEnrollment",
      "outputs": [],
      "stateMutability": "nonpayable",
      "type": "function"
    },
    {
      "inputs": [
        {
          "internalType": "uint256",
          "name": "courseTokenId",
          "type": "uint256"
        },
        {
          "internalType": "uint256",
          "name": "moduleIndex",
          "type": "uint256"
        }
      ],
      "name": "claimModule",
      "outputs": [],
      "stateMutability": "nonpayable",
      "type": "function"
    },
    {
      "inputs": [
        {
          "internalType": "address",
          "name": "user",
          "type": "address"
        },
        {
          "internalType": "uint256",
          "name": "courseTokenId",
          "type": "uint256"
        }
      ],
      "name": "getModulesCompleted",
      "outputs": [
        {
          "internalType": "uint256",
          "name": "",
          "type": "uint256"
        }
      ],
      "stateMutability": "view",
      "type": "function"
    },
    {
      "inputs": [
        {
          "internalType": "address",
          "name": "user",
          "type": "address"
        },
        {
          "internalType": "uint256",
          "name": "courseTokenId",
          "type": "uint256"
        },
        {
          "internalType": "uint256",
          "name": "moduleIndex",
          "type": "uint256"
        }
      ],
      "name": "hasClaimedModule",
      "outputs": [
        {
          "internalType": "bool",
          "name": "",
          "type": "bool"
        }
      ],
      "stateMutability": "view",
      "type": "function"
    },
    {
      "inputs": [
        {
          "internalType": "address",
          "name": "account",
          "type": "address"
        },
        {
          "internalType": "address",
          "name": "operator",
          "type": "address"
        }
      ],
      "name": "isApprovedForAll",
      "outputs": [
        {
          "internalType": "bool",
          "name": "",
          "type": "bool"
        }
      ],
      "stateMutability": "view",
      "type": "function"
    },
    {
      "inputs": [
        {
          "internalType": "address",
          "name": "",
          "type": "address"
        },
        {
          "internalType": "uint256",
          "name": "",
          "type": "uint256"
        },
        {
          "internalType": "uint256",
          "name": "",
          "type": "uint256"
        }
      ],
      "name": "moduleClaimed",
      "outputs": [
        {
          "internalType": "bool",
          "name": "",
          "type": "bool"
        }
      ],
      "stateMutability": "view",
      "type": "function"
    },
    {
      "inputs": [],
      "name": "owner",
      "outputs": [
        {
          "internalType": "address",
          "name": "",
          "type": "address"
        }
      ],
      "stateMutability": "view",
      "type": "function"
    },
    {
      "inputs": [],
      "name": "renounceOwnership",
      "outputs": [],
      "stateMutability": "nonpayable",
      "type": "function"
    },
    {
      "inputs": [
        {
          "internalType": "address",
          "name": "from",
          "type": "address"
        },
        {
          "internalType": "address",
          "name": "to",
          "type": "address"
        },
        {
          "internalType": "uint256[]",
          "name": "ids",
          "type": "uint256[]"
        },
        {
          "internalType": "uint256[]",
          "name": "values",
          "type": "uint256[]"
        },
        {
          "internalType": "bytes",
          "name": "data",
          "type": "bytes"
        }
      ],
      "name": "safeBatchTransferFrom",
      "outputs": [],
      "stateMutability": "nonpayable",
      "type": "function"
    },
    {
      "inputs": [
        {
          "internalType": "address",
          "name": "from",
          "type": "address"
        },
        {
          "internalType": "address",
          "name": "to",
          "type": "address"
        },
        {
          "internalType": "uint256",
          "name": "id",
          "type": "uint256"
        },
        {
          "internalType": "uint256",
          "name": "value",
          "type": "uint256"
        },
        {
          "internalType": "bytes",
          "name": "data",
          "type": "bytes"
        }
      ],
      "name": "safeTransferFrom",
      "outputs": [],
      "stateMutability": "nonpayable",
      "type": "function"
    },
    {
      "inputs": [
        {
          "internalType": "address",
          "name": "operator",
          "type": "address"
        },
        {
          "internalType": "bool",
          "name": "approved",
          "type": "bool"
        }
      ],
      "name": "setApprovalForAll",
      "outputs": [],
      "stateMutability": "nonpayable",
      "type": "function"
    },
    {
      "inputs": [
        {
          "internalType": "bytes4",
          "name": "interfaceId",
          "type": "bytes4"
        }
      ],
      "name": "supportsInterface",
      "outputs": [
        {
          "internalType": "bool",
          "name": "",
          "type": "bool"
        }
      ],
      "stateMutability": "view",
      "type": "function"
    },
    {
      "inputs": [
        {
          "internalType": "address",
          "name": "newOwner",
          "type": "address"
        }
      ],
      "name": "transferOwnership",
      "outputs": [],
      "stateMutability": "nonpayable",
      "type": "function"
    },
    {
      "inputs": [
        {
          "internalType": "uint256",
          "name": "",
          "type": "uint256"
        }
      ],
      "name": "uri",
      "outputs": [
        {
          "internalType": "string",
          "name": "",
          "type": "string"
        }
      ],
      "stateMutability": "view",
      "type": "function"
    }
  ],
  "bytecode": "0x6080604052346200027c5762001939803803806200001d8162000281565b928339810190602080828403126200027c5781516001600160401b03928382116200027c570192601f908082860112156200027c5784518481116200025157601f1995620000718285018816860162000281565b928284528583830101116200027c57849060005b838110620002675750506000918301015280519384116200025157600254926001938481811c9116801562000246575b828210146200023057838111620001e4575b5080928511600114620001795750839450908392916000946200016d575b50501b916000199060031b1c1916176002555b3315620001545760038054336001600160a01b03198216811790925560405191906001600160a01b03167f8be0079c531659141344cd1fd0a4f28419497f9722a3daafe3b4186f6b6457e0600080a36116919081620002a88239f35b604051631e4fbdf760e01b815260006004820152602490fd5b015192503880620000e5565b929484908116600260005284600020946000905b88838310620001c95750505010620001af575b505050811b01600255620000f8565b015160001960f88460031b161c19169055388080620001a0565b8587015188559096019594850194879350908101906200018d565b6002600052816000208480880160051c82019284891062000226575b0160051c019085905b82811062000219575050620000c7565b6000815501859062000209565b9250819262000200565b634e487b7160e01b600052602260045260246000fd5b90607f1690620000b5565b634e487b7160e01b600052604160045260246000fd5b81810183015185820184015286920162000085565b600080fd5b6040519190601f01601f191682016001600160401b03811183821017620002515760405256fe6080604052600436101561001257600080fd5b60003560e01c80624a84cb14610130578062fdd58e1461012b57806301ffc9a7146101265780630e89341c14610121578063154ecb7b1461011c5780631f1f9632146101175780632eb2c2d614610112578063379607f51461010d5780634e1273f4146101085780636f5768d914610103578063715018a6146100fe5780637c3647e2146100ef5780638da5cb5b146100f9578063a22cb465146100f4578063ada9db33146100ef578063e985e9c5146100ea578063f242432a146100e55763f2fde38b146100e057600080fd5b610d30565b610c2b565b610bce565b610aa2565b610b12565b610ae9565b610a41565b6109f4565b61093a565b61086f565b610748565b61056b565b61044e565b610348565b610286565b610227565b6101a4565b600435906001600160a01b038216820361014b57565b600080fd5b602435906001600160a01b038216820361014b57565b35906001600160a01b038216820361014b57565b606090600319011261014b576004356001600160a01b038116810361014b57906024359060443590565b3461014b576101b23661017a565b916101bb610dbe565b604051916101c88361062c565b600083526001600160a01b0382161561020e5761020c9361020660405192600184526020840152604083019160018352606084015260808301604052565b91610f03565b005b604051632bfa23e760e11b815260006004820152602490fd5b3461014b57604036600319011261014b57602061026b610245610135565b6024356000526000835260406000209060018060a01b0316600052602052604060002090565b54604051908152f35b6001600160e01b031981160361014b57565b3461014b57602036600319011261014b5760206004356102a581610274565b63ffffffff60e01b16636cdb3d1360e11b81149081156102e3575b81156102d2575b506040519015158152f35b6301ffc9a760e01b149050386102c7565b6303a24d0760e21b811491506102c0565b919082519283825260005b848110610320575050826000602080949584010152601f8019910116010190565b6020818301810151848301820152016102ff565b9060206103459281815201906102f4565b90565b3461014b5760208060031936011261014b576040519060009060025460019181831c92808316928315610444575b828510841461043057848752602087019390811561041157506001146103b7575b6103b3866103a78188038261064d565b60405191829182610334565b0390f35b6002600090815294509192917f405787fa12a823e0f2b7631cc41b3ba8828b3321ca811111fa75cd3aa3bb5ace5b83861061040057505050910190506103a7826103b338610397565b8054858701529482019481016103e5565b60ff1916845250505090151560051b0190506103a7826103b338610397565b634e487b7160e01b86526022600452602486fd5b93607f1693610376565b3461014b57604036600319011261014b5760043560243590600091338352600460205260408320828452602052604083208184526020526104a361049e61049a6040862060ff90541690565b1590565b6115d5565b6104e66104d9826104ca856104ca3360018060a01b03166000526004602052604060002090565b90600052602052604060002090565b805460ff19166001179055565b6104f86104f1611315565b833361161a565b7f9d381344ea2ded6da77aa3f46d062e5bde16b567787f33bc377fb5bca392f59561056561054b33610534866000526000602052604060002090565b9060018060a01b0316600052602052604060002090565b546040805194855260208501919091523393918291820190565b0390a380f35b3461014b57602036600319011261014b576004356000818152602081815260408083203384529091528120909190546105de576105b76040516105ad8161062c565b838152823361161a565b337ec3072b23f2402628d7aa140dabf092230c8af81b0062ee1246dda1d40123248380a380f35b60405162461bcd60e51b815260206004820152601060248201526f105b1c9958591e48195b9c9bdb1b195960821b6044820152606490fd5b634e487b7160e01b600052604160045260246000fd5b6020810190811067ffffffffffffffff82111761064857604052565b610616565b90601f8019910116810190811067ffffffffffffffff82111761064857604052565b67ffffffffffffffff81116106485760051b60200190565b81601f8201121561014b5780359161069e8361066f565b926106ac604051948561064d565b808452602092838086019260051b82010192831161014b578301905b8282106106d6575050505090565b813581529083019083016106c8565b67ffffffffffffffff811161064857601f01601f191660200190565b81601f8201121561014b57803590610718826106e5565b92610726604051948561064d565b8284526020838301011161014b57816000926020809301838601378301015290565b3461014b5760a036600319011261014b57610761610135565b610769610150565b906044359167ffffffffffffffff9081841161014b5761078e60049436908601610687565b9060643583811161014b576107a69036908701610687565b9260843590811161014b576107be9036908701610701565b936001600160a01b0380821690338214158061084b575b61081e5783161561080657156107ef5761020c955061106c565b604051626a0d4560e21b8152600081880152602490fd5b604051632bfa23e760e11b8152600081890152602490fd5b6040805163711bec9160e11b815233818b019081526001600160a01b038616602082015290918291010390fd5b50600082815260016020908152604080832033845290915290205460ff16156107d5565b3461014b57602036600319011261014b576004356000818152602081815260408083203384529091528120909190546108be576040516108bb916108b28261062c565b8382523361161a565b80f35b60405162461bcd60e51b815260206004820152600f60248201526e105b1c9958591e4818db185a5b5959608a1b6044820152606490fd5b90815180825260208080930193019160005b828110610915575050505090565b835185529381019392810192600101610907565b9060206103459281815201906108f5565b3461014b57604036600319011261014b5760043567ffffffffffffffff80821161014b573660238301121561014b5781600401356109778161066f565b92610985604051948561064d565b81845260209160248386019160051b8301019136831161014b57602401905b8282106109dd578560243586811161014b576103b3916109cb6109d1923690600401610687565b90610e3e565b60405191829182610929565b8380916109e984610166565b8152019101906109a4565b3461014b57604036600319011261014b576020610a39610a12610135565b6024356000908152602081815260408083206001600160a01b039094168352929052205490565b604051908152f35b3461014b57600080600319360112610a9f57610a5b610dbe565b600380546001600160a01b0319811690915581906001600160a01b03167f8be0079c531659141344cd1fd0a4f28419497f9722a3daafe3b4186f6b6457e08280a380f35b80fd5b3461014b57602060ff6040610ab63661017a565b6001600160a01b039092166000908152600486528381209181529085528281209181529084522054604051911615158152f35b3461014b57600036600319011261014b576003546040516001600160a01b039091168152602090f35b3461014b57604036600319011261014b57610b2b610135565b602435908115159081830361014b576001600160a01b038116928315610bb657610b77610b889233600052600160205260406000209060018060a01b0316600052602052604060002090565b9060ff801983541691151516179055565b6040519081527f17307eab39ab6107e8899845ad3d59bd9653f200f220920489ca2b5937696c3160203392a3005b60405162ced3e160e81b815260006004820152602490fd5b3461014b57604036600319011261014b57602060ff610c1f610bee610135565b610bf6610150565b6001600160a01b0391821660009081526001865260408082209290931681526020919091522090565b54166040519015158152f35b3461014b5760a036600319011261014b57610c44610135565b610c4c610150565b60843567ffffffffffffffff811161014b57610c6c903690600401610701565b906001600160a01b03838116903382141580610d0c575b610ce55782161561020e5715610ccd5761020c92610cc56064356044359160405192600184526020840152604083019160018352606084015260808301604052565b92909161106c565b604051626a0d4560e21b815260006004820152602490fd5b60405163711bec9160e11b81523360048201526001600160a01b0386166024820152604490fd5b50600082815260016020908152604080832033845290915290205460ff1615610c83565b3461014b57602036600319011261014b57610d49610135565b610d51610dbe565b6001600160a01b03908116908115610da557600354826bffffffffffffffffffffffff60a01b821617600355167f8be0079c531659141344cd1fd0a4f28419497f9722a3daafe3b4186f6b6457e0600080a3005b604051631e4fbdf760e01b815260006004820152602490fd5b6003546001600160a01b03163303610dd257565b60405163118cdaa760e01b8152336004820152602490fd5b634e487b7160e01b600052601160045260246000fd5b6000198114610e0f5760010190565b610dea565b8051821015610e285760209160051b010190565b634e487b7160e01b600052603260045260246000fd5b91909180518351808203610ee1575050805190610e5a8261066f565b91610e68604051938461064d565b808352610e77601f199161066f565b0190602091368385013760005b8151811015610ed957600581901b8281018401519087018401516000908152602081815260408083206001600160a01b0390941683529290522054610ed49190610ece8287610e14565b52610e00565b610e84565b509193505050565b604051635b05999160e01b815260048101919091526024810191909152604490fd5b908051835190818103610ee157505060005b8151811015610f8157600581901b8281016020908101519186010151610f4f929185906001600160a01b038216610f54575b505050610e00565b610f15565b610f7791610534610f6f926000526000602052604060002090565b91825461126a565b9055388481610f47565b50805191939291600103611023576020818101518382015160408051928352928201526001600160a01b0386169160009133917fc3d58168c5ae7397731d063d5bbf3d657854427343f4c083240f7aacaa2d0f6291a45b6001600160a01b038416610fed575b50505050565b8051600103611014579060208061100b959301519101519133611358565b38808080610fe7565b61101e9333611569565b61100b565b6040516001600160a01b0385169060009033907f4a39dc06d4c0dbc64b70af90fd698a233a518aa5d07e595d983b8c0526c8f7fb9080611064888883611277565b0390a4610fd8565b949190918151845190818103610ee157505060005b825181101561117457600581901b83810160209081015191870101516001600160a01b03929186908a85166110ed575b6110c39482166110c857505050610e00565b611081565b6110e391610534610f6f926000526000602052604060002090565b9055388581610f47565b919293905061110a8a610534846000526000602052604060002090565b5483811061113d57918791846110c3969594036111358d610534856000526000602052604060002090565b5594506110b1565b6040516303dee4c560e01b81526001600160a01b038c16600482015260248101919091526044810184905260648101839052608490fd5b50949193929093600185511460001461121f576020858101518382015160408051928352928201526001600160a01b03838116929086169133917fc3d58168c5ae7397731d063d5bbf3d657854427343f4c083240f7aacaa2d0f6291a45b6001600160a01b0381166111e8575b5050505050565b845160010361120e576020806112049601519201519233611452565b38808080806111e1565b61121a9491923361159e565b611204565b6040516001600160a01b03828116919085169033907f4a39dc06d4c0dbc64b70af90fd698a233a518aa5d07e595d983b8c0526c8f7fb9080611262888c83611277565b0390a46111d2565b91908201809211610e0f57565b909161128e610345936040845260408401906108f5565b9160208184039101526108f5565b9081602091031261014b575161034581610274565b909260a0926103459594600180861b03168352600060208401526040830152606082015281608082015201906102f4565b919261034595949160a094600180871b0380921685521660208401526040830152606082015281608082015201906102f4565b604051906113228261062c565b60008252565b3d15611353573d90611339826106e5565b91611347604051938461064d565b82523d6000602084013e565b606090565b9293919093843b61136a575050505050565b60209161138d604051948593849363f23a6e6160e01b98898652600486016112b1565b038160006001600160a01b0388165af160009181611422575b506113e557826113b4611328565b80519190826113de57604051632bfa23e760e11b81526001600160a01b0383166004820152602490fd5b6020915001fd5b6001600160e01b031916036113ff575038808080806111e1565b604051632bfa23e760e11b81526001600160a01b03919091166004820152602490fd5b61144491925060203d811161144b575b61143c818361064d565b81019061129c565b90386113a6565b503d611432565b939290949194853b611467575b505050505050565b61148a602093604051958694859463f23a6e6160e01b998a8752600487016112e2565b038160006001600160a01b0388165af1600091816114cc575b506114b157826113b4611328565b6001600160e01b031916036113ff575038808080808061145f565b6114e591925060203d811161144b5761143c818361064d565b90386114a3565b9261151b61034595936115299360018060a01b031686526000602087015260a0604087015260a08601906108f5565b9084820360608601526108f5565b9160808184039101526102f4565b9390610345959361151b916115299460018060a01b03809216885216602087015260a0604087015260a08601906108f5565b9293919093843b61157b575050505050565b60209161138d604051948593849363bc197c8160e01b98898652600486016114ec565b939290949194853b6115b257505050505050565b61148a602093604051958694859463bc197c8160e01b998a875260048701611537565b156115dc57565b60405162461bcd60e51b8152602060048201526016602482015275135bd91d5b1948185b1c9958591e4818db185a5b595960521b6044820152606490fd5b9091906001600160a01b0381161561020e5761165992604051906001825260208201526040810191600183526001606083015260808201604052610f03565b56fea26469706673582212206e534a2e8e719787dd86945c1701c3cdde6ad4ec08516597996fccdb0b9110e764736f6c63430008140033",
  "linkReferences": {},
  "deployedLinkReferences": {}
}