{
  "_format": "hh-sol-artifact-1",
  "contractName": "SimpleBadge",
  "sourceName": "contracts/SimpleBadge.sol",
  "abi": [
    {
      "inputs": [
        {
          "internalType": "string",
          "name": "uri_",
          "type": "string"
        }
      ],
      "stateMutability": "nonpayable",
      "type": "constructor"
    },
    {
      "inputs": [
        {
          "internalType": "address",
          "name": "sender",
          "type": "address"
        },
        {
          "internalType": "uint256",
          "name": "balance",
          "type": "uint256"
        },
        {
          "internalType": "uint256",
          "name": "needed",
          "type": "uint256"
        },
        {
          "internalType": "uint256",
          "name": "tokenId",
          "type": "uint256"
        }
      ],
      "name": "ERC1155InsufficientBalance",
      "type": "error"
    },
    {
      "inputs": [
        {
          "internalType": "address",
          "name": "approver",
          "type": "address"
        }
      ],
      "name": "ERC1155InvalidApprover",
      "type": "error"
    },
    {
      "inputs": [
        {
          "internalType": "uint256",
          "name": "idsLength",
          "type": "uint256"
        },
        {
          "internalType": "uint256",
          "name": "valuesLength",
          "type": "uint256"
        }
      ],
      "name": "ERC1155InvalidArrayLength",
      "type": "error"
    },
    {
      "inputs": [
        {
          "internalType": "address",
          "name": "operator",
          "type": "address"
        }
      ],
      "name": "ERC1155InvalidOperator",
      "type": "error"
    },
    {
      "inputs": [
        {
          "internalType": "address",
          "name": "receiver",
          "type": "address"
        }
      ],
      "name": "ERC1155InvalidReceiver",
      "type": "error"
    },
    {
      "inputs": [
        {
          "internalType": "address",
          "name": "sender",
          "type": "address"
        }
      ],
      "name": "ERC1155InvalidSender",
      "type": "error"
    },
    {
      "inputs": [
        {
          "internalType": "address",
          "name": "operator",
          "type": "address"
        },
        {
          "internalType": "address",
          "name": "owner",
          "type": "address"
        }
      ],
      "name": "ERC1155MissingApprovalForAll",
      "type": "error"
    },
    {
      "inputs": [
        {
          "internalType": "address",
          "name": "owner",
          "type": "address"
        }
      ],
      "name": "OwnableInvalidOwner",
      "type": "error"
    },
    {
      "inputs": [
        {
          "internalType": "address",
          "name": "account",
          "type": "address"
        }
      ],
      "name": "OwnableUnauthorizedAccount",
      "type": "error"
    },
    {
      "anonymous": false,
      "inputs": [
        {
          "indexed": true,
          "internalType": "address",
          "name": "account",
          "type": "address"
        },
        {
          "indexed": true,
          "internalType": "address",
          "name": "operator",
          "type": "address"
        },
        {
          "indexed": false,
          "internalType": "bool",
          "name": "approved",
          "type": "bool"
        }
      ],
      "name": "ApprovalForAll",
      "type": "event"
    },
    {
      "anonymous": false,
      "inputs": [
        {
          "indexed": true,
          "internalType": "address",
          "name": "user",
          "type": "address"
        },
        {
          "indexed": true,
          "internalType": "uint256",
          "name": "courseTokenId",
          "type": "uint256"
        }
      ],
      "name": "Enrolled",
      "type": "event"
    },
    {
      "anonymous": false,
      "inputs": [
        {
          "indexed": true,
          "internalType": "address",
          "name": "user",
          "type": "address"
        },
        {
          "indexed": true,
          "internalType": "uint256",
          "name": "courseTokenId",
          "type": "uint256"
        },
        {
          "indexed": false,
          "internalType": "uint256",
          "name": "moduleIndex",
          "type": "uint256"
        },
        {
          "indexed": false,
          "internalType": "uint256",
          "name": "totalCompleted",
          "type": "uint256"
        }
      ],
      "name": "ModuleCompleted",
      "type": "event"
    },
    {
      "anonymous": false,
      "inputs": [
        {
          "indexed": true,
          "internalType": "address",
          "name": "previousOwner",
          "type": "address"
        },
        {
          "indexed": true,
          "internalType": "address",
          "name": "newOwner",
          "type": "address"
        }
      ],
      "name": "OwnershipTransferred",
      "type": "event"
    },
    {
      "anonymous": false,
      "inputs": [
        {
          "indexed": true,
          "internalType": "address",
          "name": "operator",
          "type": "address"
        },
        {
          "indexed": true,
          "internalType": "address",
          "name": "from",
          "type": "address"
        },
        {
          "indexed": true,
          "internalType": "address",
          "name": "to",
          "type": "address"
        },
        {
          "indexed": false,
          "internalType": "uint256[]",
          "name": "ids",
          "type": "uint256[]"
        },
        {
          "indexed": false,
          "internalType": "uint256[]",
          "name": "values",
          "type": "uint256[]"
        }
      ],
      "name": "TransferBatch",
      "type": "event"
    },
    {
      "anonymous": false,
      "inputs": [
        {
          "indexed": true,
          "internalType": "address",
          "name": "operator",
          "type": "address"
        },
        {
          "indexed": true,
          "internalType": "address",
          "name": "from",
          "type": "address"
        },
        {
          "indexed": true,
          "internalType": "address",
          "name": "to",
          "type": "address"
        },
        {
          "indexed": false,
          "internalType": "uint256",
          "name": "id",
          "type": "uint256"
        },
        {
          "indexed": false,
          "internalType": "uint256",
          "name": "value",
          "type": "uint256"
        }
      ],
      "name": "TransferSingle",
      "type": "event"
    },
    {
      "anonymous": false,
      "inputs": [
        {
          "indexed": false,
          "internalType": "string",
          "name": "value",
          "type": "string"
        },
        {
          "indexed": true,
          "internalType": "uint256",
          "name": "id",
          "type": "uint256"
        }
      ],
      "name": "URI",
      "type": "event"
    },
    {
      "inputs": [
        {
          "internalType": "address",
          "name": "to",
          "type": "address"
        },
        {
          "internalType": "uint256",
          "name": "tokenId",
          "type": "uint256"
        },
        {
          "internalType": "uint256",
          "name": "amount",
          "type": "uint256"
        }
      ],
      "name": "adminMint",
      "outputs": [],
      "stateMutability": "nonpayable",
      "type": "function"
    },
    {
      "inputs": [
        {
          "internalType": "address",
          "name": "account",
          "type": "address"
        },
        {
          "internalType": "uint256",
          "name": "id",
          "type": "uint256"
        }
      ],
      "name": "balanceOf",
      "outputs": [
        {
          "internalType": "uint256",
          "name": "",
          "type": "uint256"
        }
      ],
      "stateMutability": "view",
      "type": "function"
    },
    {
      "inputs": [
        {
          "internalType": "address[]",
          "name": "accounts",
          "type": "address[]"
        },
        {
          "internalType": "uint256[]",
          "name": "ids",
          "type": "uint256[]"
        }
      ],
      "name": "balanceOfBatch",
      "outputs": [
        {
          "internalType": "uint256[]",
          "name": "",
          "type": "uint256[]"
        }
      ],
      "stateMutability": "view",
      "type": "function"
    },
    {
      "inputs": [
        {
          "internalType": "uint256",
          "name": "tokenId",
          "type": "uint256"
        }
      ],
      "name": "claim",
      "outputs": [],
      "stateMutability": "nonpayable",
      "type": "function"
    },
    {
      "inputs": [
        {
          "internalType": "address",
          "name": "",
          "type": "address"
        },
        {
          "internalType": "uint256",
          "name": "",
          "type": "uint256"
        }
      ],
      "name": "claimed",
      "outputs": [
        {
          "internalType": "bool",
          "name": "",
          "type": "bool"
        }
      ],
      "stateMutability": "view",
      "type": "function"
    },
    {
      "inputs": [
        {
          "internalType": "uint256",
          "name": "courseTokenId",
          "type": "uint256"
        },
        {
          "internalType": "uint256",
          "name": "moduleIndex",
          "type": "uint256"
        }
      ],
      "name": "completeModule",
      "outputs": [],
      "stateMutability": "nonpayable",
      "type": "function"
    },
    {
      "inputs": [
        {
          "internalType": "address",
          "name": "user",
          "type": "address"
        },
        {
          "internalType": "uint256",
          "name": "courseTokenId",
          "type": "uint256"
        }
      ],
      "name": "getModulesCompleted",
      "outputs": [
        {
          "internalType": "uint256",
          "name": "",
          "type": "uint256"
        }
      ],
      "stateMutability": "view",
      "type": "function"
    },
    {
      "inputs": [
        {
          "internalType": "address",
          "name": "user",
          "type": "address"
        },
        {
          "internalType": "uint256",
          "name": "tokenId",
          "type": "uint256"
        }
      ],
      "name": "hasBadge",
      "outputs": [
        {
          "internalType": "bool",
          "name": "",
          "type": "bool"
        }
      ],
      "stateMutability": "view",
      "type": "function"
    },
    {
      "inputs": [
        {
          "internalType": "address",
          "name": "user",
          "type": "address"
        },
        {
          "internalType": "uint256",
          "name": "courseTokenId",
          "type": "uint256"
        },
        {
          "internalType": "uint256",
          "name": "moduleIndex",
          "type": "uint256"
        }
      ],
      "name": "hasCompletedModule",
      "outputs": [
        {
          "internalType": "bool",
          "name": "",
          "type": "bool"
        }
      ],
      "stateMutability": "view",
      "type": "function"
    },
    {
      "inputs": [
        {
          "internalType": "address",
          "name": "account",
          "type": "address"
        },
        {
          "internalType": "address",
          "name": "operator",
          "type": "address"
        }
      ],
      "name": "isApprovedForAll",
      "outputs": [
        {
          "internalType": "bool",
          "name": "",
          "type": "bool"
        }
      ],
      "stateMutability": "view",
      "type": "function"
    },
    {
      "inputs": [
        {
          "internalType": "address",
          "name": "",
          "type": "address"
        },
        {
          "internalType": "uint256",
          "name": "",
          "type": "uint256"
        },
        {
          "internalType": "uint256",
          "name": "",
          "type": "uint256"
        }
      ],
      "name": "moduleCompleted",
      "outputs": [
        {
          "internalType": "bool",
          "name": "",
          "type": "bool"
        }
      ],
      "stateMutability": "view",
      "type": "function"
    },
    {
      "inputs": [
        {
          "internalType": "address",
          "name": "",
          "type": "address"
        },
        {
          "internalType": "uint256",
          "name": "",
          "type": "uint256"
        }
      ],
      "name": "modulesCompletedCount",
      "outputs": [
        {
          "internalType": "uint256",
          "name": "",
          "type": "uint256"
        }
      ],
      "stateMutability": "view",
      "type": "function"
    },
    {
      "inputs": [],
      "name": "owner",
      "outputs": [
        {
          "internalType": "address",
          "name": "",
          "type": "address"
        }
      ],
      "stateMutability": "view",
      "type": "function"
    },
    {
      "inputs": [],
      "name": "renounceOwnership",
      "outputs": [],
      "stateMutability": "nonpayable",
      "type": "function"
    },
    {
      "inputs": [
        {
          "internalType": "address",
          "name": "from",
          "type": "address"
        },
        {
          "internalType": "address",
          "name": "to",
          "type": "address"
        },
        {
          "internalType": "uint256[]",
          "name": "ids",
          "type": "uint256[]"
        },
        {
          "internalType": "uint256[]",
          "name": "values",
          "type": "uint256[]"
        },
        {
          "internalType": "bytes",
          "name": "data",
          "type": "bytes"
        }
      ],
      "name": "safeBatchTransferFrom",
      "outputs": [],
      "stateMutability": "nonpayable",
      "type": "function"
    },
    {
      "inputs": [
        {
          "internalType": "address",
          "name": "from",
          "type": "address"
        },
        {
          "internalType": "address",
          "name": "to",
          "type": "address"
        },
        {
          "internalType": "uint256",
          "name": "id",
          "type": "uint256"
        },
        {
          "internalType": "uint256",
          "name": "value",
          "type": "uint256"
        },
        {
          "internalType": "bytes",
          "name": "data",
          "type": "bytes"
        }
      ],
      "name": "safeTransferFrom",
      "outputs": [],
      "stateMutability": "nonpayable",
      "type": "function"
    },
    {
      "inputs": [
        {
          "internalType": "address",
          "name": "operator",
          "type": "address"
        },
        {
          "internalType": "bool",
          "name": "approved",
          "type": "bool"
        }
      ],
      "name": "setApprovalForAll",
      "outputs": [],
      "stateMutability": "nonpayable",
      "type": "function"
    },
    {
      "inputs": [
        {
          "internalType": "bytes4",
          "name": "interfaceId",
          "type": "bytes4"
        }
      ],
      "name": "supportsInterface",
      "outputs": [
        {
          "internalType": "bool",
          "name": "",
          "type": "bool"
        }
      ],
      "stateMutability": "view",
      "type": "function"
    },
    {
      "inputs": [
        {
          "internalType": "address",
          "name": "newOwner",
          "type": "address"
        }
      ],
      "name": "transferOwnership",
      "outputs": [],
      "stateMutability": "nonpayable",
      "type": "function"
    },
    {
      "inputs": [
        {
          "internalType": "uint256",
          "name": "tokenId",
          "type": "uint256"
        }
      ],
      "name": "uri",
      "outputs": [
        {
          "internalType": "string",
          "name": "",
          "type": "string"
        }
      ],
      "stateMutability": "view",
      "type": "function"
    }
  ],
  "bytecode": "0x6080604052346200027c5762001b44803803806200001d8162000281565b928339810190602080828403126200027c5781516001600160401b03928382116200027c570192601f908082860112156200027c5784518481116200025157601f1995620000718285018816860162000281565b928284528583830101116200027c57849060005b838110620002675750506000918301015280519384116200025157600254926001938481811c9116801562000246575b828210146200023057838111620001e4575b5080928511600114620001795750839450908392916000946200016d575b50501b916000199060031b1c1916176002555b3315620001545760038054336001600160a01b03198216811790925560405191906001600160a01b03167f8be0079c531659141344cd1fd0a4f28419497f9722a3daafe3b4186f6b6457e0600080a361189c9081620002a88239f35b604051631e4fbdf760e01b815260006004820152602490fd5b015192503880620000e5565b929484908116600260005284600020946000905b88838310620001c95750505010620001af575b505050811b01600255620000f8565b015160001960f88460031b161c19169055388080620001a0565b8587015188559096019594850194879350908101906200018d565b6002600052816000208480880160051c82019284891062000226575b0160051c019085905b82811062000219575050620000c7565b6000815501859062000209565b9250819262000200565b634e487b7160e01b600052602260045260246000fd5b90607f1690620000b5565b634e487b7160e01b600052604160045260246000fd5b81810183015185820184015286920162000085565b600080fd5b6040519190601f01601f191682016001600160401b03811183821017620002515760405256fe6080604052600436101561001257600080fd5b60003560e01c80624a84cb1461014b578062fdd58e1461014657806301ffc9a7146101415780630e89341c1461013c5780632eb2c2d614610137578063379607f5146101325780634c6a70ce1461012d5780634dd6c8de146101285780634e1273f4146101235780636f5768d914610114578063715018a61461011e5780638da5cb5b146101195780638e9ac7d514610114578063a22cb4651461010f578063ad3195031461010a578063e985e9c514610105578063ec025432146100f6578063f242432a14610100578063f2fde38b146100fb5763fb0729db146100f657600080fd5b610c6f565b610dbb565b610cb6565b610c12565b610ae4565b610a28565b610956565b6109ff565b61099e565b61089c565b61080a565b6107e1565b610705565b6105de565b61036b565b6102a1565b610242565b6101bf565b600435906001600160a01b038216820361016657565b600080fd5b602435906001600160a01b038216820361016657565b35906001600160a01b038216820361016657565b6060906003190112610166576004356001600160a01b038116810361016657906024359060443590565b34610166576101cd36610195565b916101d6610e49565b604051916101e3836104c2565b600083526001600160a01b03821615610229576102279361022160405192600184526020840152604083019160018352606084015260808301604052565b91610f93565b005b604051632bfa23e760e11b815260006004820152602490fd5b34610166576040366003190112610166576020610286610260610150565b6024356000526000835260406000209060018060a01b0316600052602052604060002090565b54604051908152f35b6001600160e01b031981160361016657565b346101665760203660031901126101665760206004356102c08161028f565b63ffffffff60e01b16636cdb3d1360e11b81149081156102fe575b81156102ed575b506040519015158152f35b6301ffc9a760e01b149050386102e2565b6303a24d0760e21b811491506102db565b60005b8381106103225750506000910152565b8181015183820152602001610312565b9060209161034b8151809281855285808601910161030f565b601f01601f1916010190565b906020610368928181520190610332565b90565b346101665760208060031936011261016657604051600060025460019080821c918082169182156104a2575b868410831461048e578386526020860192908115610473575060011461041f575b61041b8561040f886103cc838903846104e3565b6104016103da60043561178e565b6103fb6103ee604051968795860190611757565b602f60f81b815260010190565b90611757565b03601f1981018352826104e3565b60405191829182610357565b0390f35b60026000529250907f405787fa12a823e0f2b7631cc41b3ba8828b3321ca811111fa75cd3aa3bb5ace926000935b8285106104625750505001826103cc836103b8565b80548486015293860193810161044d565b60ff19168352505090151560051b019050826103cc836103b8565b634e487b7160e01b85526022600452602485fd5b92607f1692610397565b634e487b7160e01b600052604160045260246000fd5b6020810190811067ffffffffffffffff8211176104de57604052565b6104ac565b90601f8019910116810190811067ffffffffffffffff8211176104de57604052565b67ffffffffffffffff81116104de5760051b60200190565b81601f820112156101665780359161053483610505565b9261054260405194856104e3565b808452602092838086019260051b820101928311610166578301905b82821061056c575050505090565b8135815290830190830161055e565b67ffffffffffffffff81116104de57601f01601f191660200190565b81601f82011215610166578035906105ae8261057b565b926105bc60405194856104e3565b8284526020838301011161016657816000926020809301838601378301015290565b346101665760a0366003190112610166576105f7610150565b6105ff61016b565b906044359167ffffffffffffffff90818411610166576106246004943690860161051d565b906064358381116101665761063c903690870161051d565b92608435908111610166576106549036908701610597565b936001600160a01b038082169033821415806106e1575b6106b45783161561069c5715610685576102279550611113565b604051626a0d4560e21b8152600081880152602490fd5b604051632bfa23e760e11b8152600081890152602490fd5b6040805163711bec9160e11b815233818b019081526001600160a01b038616602082015290918291010390fd5b50600082815260016020908152604080832033845290915290205460ff161561066b565b346101665760203660031901126101665760043560009033825260046020526040822081835260205260ff6040832054166107aa57336000908152600460205260409020610770906107639083905b90600052602052604060002090565b805460ff19166001179055565b61078261077b6113ca565b823361168a565b337f490a826084db94ebf4ad258b797124c9f62176dd5f68205ffbd52d1260f7ed548380a380f35b60405162461bcd60e51b815260206004820152600f60248201526e105b1c9958591e4818db185a5b5959608a1b6044820152606490fd5b346101665760403660031901126101665760206107ff610260610150565b541515604051908152f35b34610166576040366003190112610166576001600160a01b0361082b610150565b1660005260046020526040600020602435600052602052602060ff604060002054166040519015158152f35b90815180825260208080930193019160005b828110610877575050505090565b835185529381019392810192600101610869565b906020610368928181520190610857565b346101665760403660031901126101665760043567ffffffffffffffff80821161016657366023830112156101665781600401356108d981610505565b926108e760405194856104e3565b81845260209160248386019160051b8301019136831161016657602401905b82821061093f57856024358681116101665761041b9161092d61093392369060040161051d565b90610ece565b6040519182918261088b565b83809161094b84610181565b815201910190610906565b34610166576040366003190112610166576001600160a01b03610977610150565b16600052600660205260406000206024356000526020526020604060002054604051908152f35b34610166576000806003193601126109fc576109b8610e49565b600380546001600160a01b0319811690915581906001600160a01b03167f8be0079c531659141344cd1fd0a4f28419497f9722a3daafe3b4186f6b6457e08280a380f35b80fd5b34610166576000366003190112610166576003546040516001600160a01b039091168152602090f35b3461016657604036600319011261016657610a41610150565b6024359081151590818303610166576001600160a01b038116928315610acc57610a8d610a9e9233600052600160205260406000209060018060a01b0316600052602052604060002090565b9060ff801983541691151516179055565b6040519081527f17307eab39ab6107e8899845ad3d59bd9653f200f220920489ca2b5937696c3160203392a3005b60405162ced3e160e81b815260006004820152602490fd5b346101665760403660031901126101665760043560243590600091338352600460205260408320828452602052610b28610b236040852060ff90541690565b6116cb565b610b65610b60610b5c610b5584610754876107543360018060a01b03166000526005602052604060002090565b5460ff1690565b1590565b61170b565b610b8c61076382610754856107543360018060a01b03166000526005602052604060002090565b336000908152600660205260409020610ba6908390610754565b610bb08154610e8b565b90553360009081526006602052604090207f724e5ee8f16cc9e20692f4c15cca214929d533ed47c2be5b7f753ba362b7e72590610c0c90610bf2908590610754565b546040805194855260208501919091523393918291820190565b0390a380f35b3461016657604036600319011261016657602060ff610c63610c32610150565b610c3a61016b565b6001600160a01b0391821660009081526001865260408082209290931681526020919091522090565b54166040519015158152f35b3461016657602060ff6040610c8336610195565b6001600160a01b039092166000908152600586528381209181529085528281209181529084522054604051911615158152f35b346101665760a036600319011261016657610ccf610150565b610cd761016b565b60843567ffffffffffffffff811161016657610cf7903690600401610597565b906001600160a01b03838116903382141580610d97575b610d70578216156102295715610d585761022792610d506064356044359160405192600184526020840152604083019160018352606084015260808301604052565b929091611113565b604051626a0d4560e21b815260006004820152602490fd5b60405163711bec9160e11b81523360048201526001600160a01b0386166024820152604490fd5b50600082815260016020908152604080832033845290915290205460ff1615610d0e565b3461016657602036600319011261016657610dd4610150565b610ddc610e49565b6001600160a01b03908116908115610e3057600354826bffffffffffffffffffffffff60a01b821617600355167f8be0079c531659141344cd1fd0a4f28419497f9722a3daafe3b4186f6b6457e0600080a3005b604051631e4fbdf760e01b815260006004820152602490fd5b6003546001600160a01b03163303610e5d57565b60405163118cdaa760e01b8152336004820152602490fd5b634e487b7160e01b600052601160045260246000fd5b6000198114610e9a5760010190565b610e75565b634e487b7160e01b600052603260045260246000fd5b8051821015610ec95760209160051b010190565b610e9f565b91909180518351808203610f71575050805190610eea82610505565b91610ef860405193846104e3565b808352610f07601f1991610505565b0190602091368385013760005b8151811015610f6957600581901b8281018401519087018401516000908152602081815260408083206001600160a01b0390941683529290522054610f649190610f5e8287610eb5565b52610e8b565b610f14565b509193505050565b604051635b05999160e01b815260048101919091526024810191909152604490fd5b908051835190818103610f7157505060005b815181101561102857600581901b8281016020908101519186010151610fdf929185906001600160a01b038216610fe4575b505050610e8b565b610fa5565b61101e91610fff611016926000526000602052604060002090565b9060018060a01b0316600052602052604060002090565b91825461131f565b9055388481610fd7565b508051919392916001036110ca576020818101518382015160408051928352928201526001600160a01b0386169160009133917fc3d58168c5ae7397731d063d5bbf3d657854427343f4c083240f7aacaa2d0f6291a45b6001600160a01b038416611094575b50505050565b80516001036110bb57906020806110b295930151910151913361140d565b3880808061108e565b6110c5933361161e565b6110b2565b6040516001600160a01b0385169060009033907f4a39dc06d4c0dbc64b70af90fd698a233a518aa5d07e595d983b8c0526c8f7fb908061110b88888361132c565b0390a461107f565b949190918151845190818103610f7157505060005b825181101561121b57600581901b83810160209081015191870101516001600160a01b03929186908a8516611194575b61116a94821661116f57505050610e8b565b611128565b61118a91610fff611016926000526000602052604060002090565b9055388581610fd7565b91929390506111b18a610fff846000526000602052604060002090565b548381106111e4579187918461116a969594036111dc8d610fff856000526000602052604060002090565b559450611158565b6040516303dee4c560e01b81526001600160a01b038c16600482015260248101919091526044810184905260648101839052608490fd5b5094919392909360018551146000146112c6576020858101518382015160408051928352928201526001600160a01b03838116929086169133917fc3d58168c5ae7397731d063d5bbf3d657854427343f4c083240f7aacaa2d0f6291a45b6001600160a01b03811661128f575b5050505050565b84516001036112b5576020806112ab9601519201519233611507565b3880808080611288565b6112c194919233611653565b6112ab565b6040516001600160a01b03828116919085169033907f4a39dc06d4c0dbc64b70af90fd698a233a518aa5d07e595d983b8c0526c8f7fb9080611309888c8361132c565b0390a4611279565b6030019081603011610e9a57565b91908201809211610e9a57565b909161134361036893604084526040840190610857565b916020818403910152610857565b9081602091031261016657516103688161028f565b909260a0926103689594600180861b0316835260006020840152604083015260608201528160808201520190610332565b919261036895949160a094600180871b038092168552166020840152604083015260608201528160808201520190610332565b604051906113d7826104c2565b60008252565b3d15611408573d906113ee8261057b565b916113fc60405193846104e3565b82523d6000602084013e565b606090565b9293919093843b61141f575050505050565b602091611442604051948593849363f23a6e6160e01b9889865260048601611366565b038160006001600160a01b0388165af1600091816114d7575b5061149a57826114696113dd565b805191908261149357604051632bfa23e760e11b81526001600160a01b0383166004820152602490fd5b6020915001fd5b6001600160e01b031916036114b457503880808080611288565b604051632bfa23e760e11b81526001600160a01b03919091166004820152602490fd5b6114f991925060203d8111611500575b6114f181836104e3565b810190611351565b903861145b565b503d6114e7565b939290949194853b61151c575b505050505050565b61153f602093604051958694859463f23a6e6160e01b998a875260048701611397565b038160006001600160a01b0388165af160009181611581575b5061156657826114696113dd565b6001600160e01b031916036114b45750388080808080611514565b61159a91925060203d8111611500576114f181836104e3565b9038611558565b926115d061036895936115de9360018060a01b031686526000602087015260a0604087015260a0860190610857565b908482036060860152610857565b916080818403910152610332565b939061036895936115d0916115de9460018060a01b03809216885216602087015260a0604087015260a0860190610857565b9293919093843b611630575050505050565b602091611442604051948593849363bc197c8160e01b98898652600486016115a1565b939290949194853b61166757505050505050565b61153f602093604051958694859463bc197c8160e01b998a8752600487016115ec565b9091906001600160a01b03811615610229576116c992604051906001825260208201526040810191600183526001606083015260808201604052610f93565b565b156116d257565b60405162461bcd60e51b8152602060048201526011602482015270135d5cdd08195b9c9bdb1b08199a5c9cdd607a1b6044820152606490fd5b1561171257565b60405162461bcd60e51b815260206004820152601860248201527f4d6f64756c6520616c726561647920636f6d706c6574656400000000000000006044820152606490fd5b9061176a6020928281519485920161030f565b0190565b600019810191908211610e9a57565b908151811015610ec9570160200190565b801561183757806000908282935b61182357506117aa8361057b565b926117b860405194856104e3565b80845281601f196117c88361057b565b013660208701375b6117da5750505090565b6117e39061176e565b90600a9061180e6117fe6117f8848406611311565b60ff1690565b60f81b6001600160f81b03191690565b841a61181a848761177d565b530490816117d0565b9261182f600a91610e8b565b93048061179c565b506040516040810181811067ffffffffffffffff8211176104de5760405260018152600360fc1b60208201529056fea26469706673582212200c06708ad39243eba162cca6ae6731d69721f5b337e7b2453fc59043cb8e77ce64736f6c63430008140033",
  "linkReferences": {},
  "deployedLinkReferences": {}
}