{
  "_format": "hh-sol-artifact-1",
  "contractName": "SimpleBadge",
  "sourceName": "contracts/SimpleBadge.sol",
  "abi": [
    {
      "inputs": [
        {
          "internalType": "string",
          "name": "uri_",
          "type": "string"
        }
      ],
      "stateMutability": "nonpayable",
      "type": "constructor"
    },
    {
      "inputs": [
        {
          "internalType": "address",
          "name": "sender",
          "type": "address"
        },
        {
          "internalType": "uint256",
          "name": "balance",
          "type": "uint256"
        },
        {
          "internalType": "uint256",
          "name": "needed",
          "type": "uint256"
        },
        {
          "internalType": "uint256",
          "name": "tokenId",
          "type": "uint256"
        }
      ],
      "name": "ERC1155InsufficientBalance",
      "type": "error"
    },
    {
      "inputs": [
        {
          "internalType": "address",
          "name": "approver",
          "type": "address"
        }
      ],
      "name": "ERC1155InvalidApprover",
      "type": "error"
    },
    {
      "inputs": [
        {
          "internalType": "uint256",
          "name": "idsLength",
          "type": "uint256"
        },
        {
          "internalType": "uint256",
          "name": "valuesLength",
          "type": "uint256"
        }
      ],
      "name": "ERC1155InvalidArrayLength",
      "type": "error"
    },
    {
      "inputs": [
        {
          "internalType": "address",
          "name": "operator",
          "type": "address"
        }
      ],
      "name": "ERC1155InvalidOperator",
      "type": "error"
    },
    {
      "inputs": [
        {
          "internalType": "address",
          "name": "receiver",
          "type": "address"
        }
      ],
      "name": "ERC1155InvalidReceiver",
      "type": "error"
    },
    {
      "inputs": [
        {
          "internalType": "address",
          "name": "sender",
          "type": "address"
        }
      ],
      "name": "ERC1155InvalidSender",
      "type": "error"
    },
    {
      "inputs": [
        {
          "internalType": "address",
          "name": "operator",
          "type": "address"
        },
        {
          "internalType": "address",
          "name": "owner",
          "type": "address"
        }
      ],
      "name": "ERC1155MissingApprovalForAll",
      "type": "error"
    },
    {
      "inputs": [
        {
          "internalType": "address",
          "name": "owner",
          "type": "address"
        }
      ],
      "name": "OwnableInvalidOwner",
      "type": "error"
    },
    {
      "inputs": [
        {
          "internalType": "address",
          "name": "account",
          "type": "address"
        }
      ],
      "name": "OwnableUnauthorizedAccount",
      "type": "error"
    },
    {
      "anonymous": false,
      "inputs": [
        {
          "indexed": true,
          "internalType": "address",
          "name": "account",
          "type": "address"
        },
        {
          "indexed": true,
          "internalType": "address",
          "name": "operator",
          "type": "address"
        },
        {
          "indexed": false,
          "internalType": "bool",
          "name": "approved",
          "type": "bool"
        }
      ],
      "name": "ApprovalForAll",
      "type": "event"
    },
    {
      "anonymous": false,
      "inputs": [
        {
          "indexed": true,
          "internalType": "address",
          "name": "previousOwner",
          "type": "address"
        },
        {
          "indexed": true,
          "internalType": "address",
          "name": "newOwner",
          "type": "address"
        }
      ],
      "name": "OwnershipTransferred",
      "type": "event"
    },
    {
      "anonymous": false,
      "inputs": [
        {
          "indexed": true,
          "internalType": "address",
          "name": "operator",
          "type": "address"
        },
        {
          "indexed": true,
          "internalType": "address",
          "name": "from",
          "type": "address"
        },
        {
          "indexed": true,
          "internalType": "address",
          "name": "to",
          "type": "address"
        },
        {
          "indexed": false,
          "internalType": "uint256[]",
          "name": "ids",
          "type": "uint256[]"
        },
        {
          "indexed": false,
          "internalType": "uint256[]",
          "name": "values",
          "type": "uint256[]"
        }
      ],
      "name": "TransferBatch",
      "type": "event"
    },
    {
      "anonymous": false,
      "inputs": [
        {
          "indexed": true,
          "internalType": "address",
          "name": "operator",
          "type": "address"
        },
        {
          "indexed": true,
          "internalType": "address",
          "name": "from",
          "type": "address"
        },
        {
          "indexed": true,
          "internalType": "address",
          "name": "to",
          "type": "address"
        },
        {
          "indexed": false,
          "internalType": "uint256",
          "name": "id",
          "type": "uint256"
        },
        {
          "indexed": false,
          "internalType": "uint256",
          "name": "value",
          "type": "uint256"
        }
      ],
      "name": "TransferSingle",
      "type": "event"
    },
    {
      "anonymous": false,
      "inputs": [
        {
          "indexed": false,
          "internalType": "string",
          "name": "value",
          "type": "string"
        },
        {
          "indexed": true,
          "internalType": "uint256",
          "name": "id",
          "type": "uint256"
        }
      ],
      "name": "URI",
      "type": "event"
    },
    {
      "inputs": [
        {
          "internalType": "address",
          "name": "to",
          "type": "address"
        },
        {
          "internalType": "uint256",
          "name": "tokenId",
          "type": "uint256"
        },
        {
          "internalType": "uint256",
          "name": "amount",
          "type": "uint256"
        }
      ],
      "name": "adminMint",
      "outputs": [],
      "stateMutability": "nonpayable",
      "type": "function"
    },
    {
      "inputs": [
        {
          "internalType": "address",
          "name": "account",
          "type": "address"
        },
        {
          "internalType": "uint256",
          "name": "id",
          "type": "uint256"
        }
      ],
      "name": "balanceOf",
      "outputs": [
        {
          "internalType": "uint256",
          "name": "",
          "type": "uint256"
        }
      ],
      "stateMutability": "view",
      "type": "function"
    },
    {
      "inputs": [
        {
          "internalType": "address[]",
          "name": "accounts",
          "type": "address[]"
        },
        {
          "internalType": "uint256[]",
          "name": "ids",
          "type": "uint256[]"
        }
      ],
      "name": "balanceOfBatch",
      "outputs": [
        {
          "internalType": "uint256[]",
          "name": "",
          "type": "uint256[]"
        }
      ],
      "stateMutability": "view",
      "type": "function"
    },
    {
      "inputs": [
        {
          "internalType": "uint256",
          "name": "tokenId",
          "type": "uint256"
        }
      ],
      "name": "claim",
      "outputs": [],
      "stateMutability": "nonpayable",
      "type": "function"
    },
    {
      "inputs": [
        {
          "internalType": "address",
          "name": "",
          "type": "address"
        },
        {
          "internalType": "uint256",
          "name": "",
          "type": "uint256"
        }
      ],
      "name": "claimed",
      "outputs": [
        {
          "internalType": "bool",
          "name": "",
          "type": "bool"
        }
      ],
      "stateMutability": "view",
      "type": "function"
    },
    {
      "inputs": [
        {
          "internalType": "address",
          "name": "user",
          "type": "address"
        },
        {
          "internalType": "uint256",
          "name": "tokenId",
          "type": "uint256"
        }
      ],
      "name": "hasBadge",
      "outputs": [
        {
          "internalType": "bool",
          "name": "",
          "type": "bool"
        }
      ],
      "stateMutability": "view",
      "type": "function"
    },
    {
      "inputs": [
        {
          "internalType": "address",
          "name": "account",
          "type": "address"
        },
        {
          "internalType": "address",
          "name": "operator",
          "type": "address"
        }
      ],
      "name": "isApprovedForAll",
      "outputs": [
        {
          "internalType": "bool",
          "name": "",
          "type": "bool"
        }
      ],
      "stateMutability": "view",
      "type": "function"
    },
    {
      "inputs": [],
      "name": "owner",
      "outputs": [
        {
          "internalType": "address",
          "name": "",
          "type": "address"
        }
      ],
      "stateMutability": "view",
      "type": "function"
    },
    {
      "inputs": [],
      "name": "renounceOwnership",
      "outputs": [],
      "stateMutability": "nonpayable",
      "type": "function"
    },
    {
      "inputs": [
        {
          "internalType": "address",
          "name": "from",
          "type": "address"
        },
        {
          "internalType": "address",
          "name": "to",
          "type": "address"
        },
        {
          "internalType": "uint256[]",
          "name": "ids",
          "type": "uint256[]"
        },
        {
          "internalType": "uint256[]",
          "name": "values",
          "type": "uint256[]"
        },
        {
          "internalType": "bytes",
          "name": "data",
          "type": "bytes"
        }
      ],
      "name": "safeBatchTransferFrom",
      "outputs": [],
      "stateMutability": "nonpayable",
      "type": "function"
    },
    {
      "inputs": [
        {
          "internalType": "address",
          "name": "from",
          "type": "address"
        },
        {
          "internalType": "address",
          "name": "to",
          "type": "address"
        },
        {
          "internalType": "uint256",
          "name": "id",
          "type": "uint256"
        },
        {
          "internalType": "uint256",
          "name": "value",
          "type": "uint256"
        },
        {
          "internalType": "bytes",
          "name": "data",
          "type": "bytes"
        }
      ],
      "name": "safeTransferFrom",
      "outputs": [],
      "stateMutability": "nonpayable",
      "type": "function"
    },
    {
      "inputs": [
        {
          "internalType": "address",
          "name": "operator",
          "type": "address"
        },
        {
          "internalType": "bool",
          "name": "approved",
          "type": "bool"
        }
      ],
      "name": "setApprovalForAll",
      "outputs": [],
      "stateMutability": "nonpayable",
      "type": "function"
    },
    {
      "inputs": [
        {
          "internalType": "bytes4",
          "name": "interfaceId",
          "type": "bytes4"
        }
      ],
      "name": "supportsInterface",
      "outputs": [
        {
          "internalType": "bool",
          "name": "",
          "type": "bool"
        }
      ],
      "stateMutability": "view",
      "type": "function"
    },
    {
      "inputs": [
        {
          "internalType": "address",
          "name": "newOwner",
          "type": "address"
        }
      ],
      "name": "transferOwnership",
      "outputs": [],
      "stateMutability": "nonpayable",
      "type": "function"
    },
    {
      "inputs": [
        {
          "internalType": "uint256",
          "name": "",
          "type": "uint256"
        }
      ],
      "name": "uri",
      "outputs": [
        {
          "internalType": "string",
          "name": "",
          "type": "string"
        }
      ],
      "stateMutability": "view",
      "type": "function"
    }
  ],
  "bytecode": "0x6080604052346200027c5762001710803803806200001d8162000281565b928339810190602080828403126200027c5781516001600160401b03928382116200027c570192601f908082860112156200027c5784518481116200025157601f1995620000718285018816860162000281565b928284528583830101116200027c57849060005b838110620002675750506000918301015280519384116200025157600254926001938481811c9116801562000246575b828210146200023057838111620001e4575b5080928511600114620001795750839450908392916000946200016d575b50501b916000199060031b1c1916176002555b3315620001545760038054336001600160a01b03198216811790925560405191906001600160a01b03167f8be0079c531659141344cd1fd0a4f28419497f9722a3daafe3b4186f6b6457e0600080a36114689081620002a88239f35b604051631e4fbdf760e01b815260006004820152602490fd5b015192503880620000e5565b929484908116600260005284600020946000905b88838310620001c95750505010620001af575b505050811b01600255620000f8565b015160001960f88460031b161c19169055388080620001a0565b8587015188559096019594850194879350908101906200018d565b6002600052816000208480880160051c82019284891062000226575b0160051c019085905b82811062000219575050620000c7565b6000815501859062000209565b9250819262000200565b634e487b7160e01b600052602260045260246000fd5b90607f1690620000b5565b634e487b7160e01b600052604160045260246000fd5b81810183015185820184015286920162000085565b600080fd5b6040519190601f01601f191682016001600160401b03811183821017620002515760405256fe6080604052600436101561001257600080fd5b60003560e01c80624a84cb14610105578062fdd58e1461010057806301ffc9a7146100fb5780630e89341c146100f65780632eb2c2d6146100f1578063379607f5146100ec5780634c6a70ce146100e75780634dd6c8de146100e25780634e1273f4146100dd578063715018a6146100d85780638da5cb5b146100d3578063a22cb465146100ce578063e985e9c5146100c9578063f242432a146100c45763f2fde38b146100bf57600080fd5b610b35565b610a30565b6109d3565b610917565b6108ee565b61088d565b6107d3565b610741565b610718565b610662565b61053b565b610303565b610241565b6101e2565b61014f565b600435906001600160a01b038216820361012057565b600080fd5b602435906001600160a01b038216820361012057565b35906001600160a01b038216820361012057565b346101205760603660031901126101205761016861010a565b610170610bc3565b60405161017c8161041f565b600081526001600160a01b038216156101c9576101c7916101c16044356024359160405192600184526020840152604083019160018352606084015260808301604052565b91610d08565b005b604051632bfa23e760e11b815260006004820152602490fd5b3461012057604036600319011261012057602061022661020061010a565b6024356000526000835260406000209060018060a01b0316600052602052604060002090565b54604051908152f35b6001600160e01b031981160361012057565b346101205760203660031901126101205760206004356102608161022f565b63ffffffff60e01b16636cdb3d1360e11b811490811561029e575b811561028d575b506040519015158152f35b6301ffc9a760e01b14905038610282565b6303a24d0760e21b8114915061027b565b919082519283825260005b8481106102db575050826000602080949584010152601f8019910116010190565b6020818301810151848301820152016102ba565b9060206103009281815201906102af565b90565b3461012057602080600319360112610120576040519060009060025460019181831c928083169283156103ff575b82851084146103eb5784875260208701939081156103cc5750600114610372575b61036e8661036281880382610440565b604051918291826102ef565b0390f35b6002600090815294509192917f405787fa12a823e0f2b7631cc41b3ba8828b3321ca811111fa75cd3aa3bb5ace5b8386106103bb57505050910190506103628261036e38610352565b8054858701529482019481016103a0565b60ff1916845250505090151560051b0190506103628261036e38610352565b634e487b7160e01b86526022600452602486fd5b93607f1693610331565b634e487b7160e01b600052604160045260246000fd5b6020810190811067ffffffffffffffff82111761043b57604052565b610409565b90601f8019910116810190811067ffffffffffffffff82111761043b57604052565b67ffffffffffffffff811161043b5760051b60200190565b81601f820112156101205780359161049183610462565b9261049f6040519485610440565b808452602092838086019260051b820101928311610120578301905b8282106104c9575050505090565b813581529083019083016104bb565b67ffffffffffffffff811161043b57601f01601f191660200190565b81601f820112156101205780359061050b826104d8565b926105196040519485610440565b8284526020838301011161012057816000926020809301838601378301015290565b346101205760a03660031901126101205761055461010a565b61055c610125565b906044359167ffffffffffffffff90818411610120576105816004943690860161047a565b9060643583811161012057610599903690870161047a565b92608435908111610120576105b190369087016104f4565b936001600160a01b0380821690338214158061063e575b610611578316156105f957156105e2576101c79550610e88565b604051626a0d4560e21b8152600081880152602490fd5b604051632bfa23e760e11b8152600081890152602490fd5b6040805163711bec9160e11b815233818b019081526001600160a01b038616602082015290918291010390fd5b50600082815260016020908152604080832033845290915290205460ff16156105c8565b346101205760203660031901126101205760043560009033825260046020526040822081835260205260ff6040832054166106e1573360009081526004602052604090206106de91906106cf906106c29083600052602052604060002090565b805460ff19166001179055565b6106d7611131565b90336113f1565b80f35b60405162461bcd60e51b815260206004820152600f60248201526e105b1c9958591e4818db185a5b5959608a1b6044820152606490fd5b3461012057604036600319011261012057602061073661020061010a565b541515604051908152f35b34610120576040366003190112610120576001600160a01b0361076261010a565b1660005260046020526040600020602435600052602052602060ff604060002054166040519015158152f35b90815180825260208080930193019160005b8281106107ae575050505090565b8351855293810193928101926001016107a0565b90602061030092818152019061078e565b346101205760403660031901126101205760043567ffffffffffffffff808211610120573660238301121561012057816004013561081081610462565b9261081e6040519485610440565b81845260209160248386019160051b8301019136831161012057602401905b82821061087657856024358681116101205761036e9161086461086a92369060040161047a565b90610c43565b604051918291826107c2565b8380916108828461013b565b81520191019061083d565b34610120576000806003193601126108eb576108a7610bc3565b600380546001600160a01b0319811690915581906001600160a01b03167f8be0079c531659141344cd1fd0a4f28419497f9722a3daafe3b4186f6b6457e08280a380f35b80fd5b34610120576000366003190112610120576003546040516001600160a01b039091168152602090f35b346101205760403660031901126101205761093061010a565b6024359081151590818303610120576001600160a01b0381169283156109bb5761097c61098d9233600052600160205260406000209060018060a01b0316600052602052604060002090565b9060ff801983541691151516179055565b6040519081527f17307eab39ab6107e8899845ad3d59bd9653f200f220920489ca2b5937696c3160203392a3005b60405162ced3e160e81b815260006004820152602490fd5b3461012057604036600319011261012057602060ff610a246109f361010a565b6109fb610125565b6001600160a01b0391821660009081526001865260408082209290931681526020919091522090565b54166040519015158152f35b346101205760a036600319011261012057610a4961010a565b610a51610125565b60843567ffffffffffffffff811161012057610a719036906004016104f4565b906001600160a01b03838116903382141580610b11575b610aea578216156101c95715610ad2576101c792610aca6064356044359160405192600184526020840152604083019160018352606084015260808301604052565b929091610e88565b604051626a0d4560e21b815260006004820152602490fd5b60405163711bec9160e11b81523360048201526001600160a01b0386166024820152604490fd5b50600082815260016020908152604080832033845290915290205460ff1615610a88565b3461012057602036600319011261012057610b4e61010a565b610b56610bc3565b6001600160a01b03908116908115610baa57600354826bffffffffffffffffffffffff60a01b821617600355167f8be0079c531659141344cd1fd0a4f28419497f9722a3daafe3b4186f6b6457e0600080a3005b604051631e4fbdf760e01b815260006004820152602490fd5b6003546001600160a01b03163303610bd757565b60405163118cdaa760e01b8152336004820152602490fd5b634e487b7160e01b600052601160045260246000fd5b6000198114610c145760010190565b610bef565b8051821015610c2d5760209160051b010190565b634e487b7160e01b600052603260045260246000fd5b91909180518351808203610ce6575050805190610c5f82610462565b91610c6d6040519384610440565b808352610c7c601f1991610462565b0190602091368385013760005b8151811015610cde57600581901b8281018401519087018401516000908152602081815260408083206001600160a01b0390941683529290522054610cd99190610cd38287610c19565b52610c05565b610c89565b509193505050565b604051635b05999160e01b815260048101919091526024810191909152604490fd5b908051835190818103610ce657505060005b8151811015610d9d57600581901b8281016020908101519186010151610d54929185906001600160a01b038216610d59575b505050610c05565b610d1a565b610d9391610d74610d8b926000526000602052604060002090565b9060018060a01b0316600052602052604060002090565b918254611086565b9055388481610d4c565b50805191939291600103610e3f576020818101518382015160408051928352928201526001600160a01b0386169160009133917fc3d58168c5ae7397731d063d5bbf3d657854427343f4c083240f7aacaa2d0f6291a45b6001600160a01b038416610e09575b50505050565b8051600103610e305790602080610e27959301519101519133611174565b38808080610e03565b610e3a9333611385565b610e27565b6040516001600160a01b0385169060009033907f4a39dc06d4c0dbc64b70af90fd698a233a518aa5d07e595d983b8c0526c8f7fb9080610e80888883611093565b0390a4610df4565b949190918151845190818103610ce657505060005b8251811015610f9057600581901b83810160209081015191870101516001600160a01b03929186908a8516610f09575b610edf948216610ee457505050610c05565b610e9d565b610eff91610d74610d8b926000526000602052604060002090565b9055388581610d4c565b9192939050610f268a610d74846000526000602052604060002090565b54838110610f595791879184610edf96959403610f518d610d74856000526000602052604060002090565b559450610ecd565b6040516303dee4c560e01b81526001600160a01b038c16600482015260248101919091526044810184905260648101839052608490fd5b50949193929093600185511460001461103b576020858101518382015160408051928352928201526001600160a01b03838116929086169133917fc3d58168c5ae7397731d063d5bbf3d657854427343f4c083240f7aacaa2d0f6291a45b6001600160a01b038116611004575b5050505050565b845160010361102a57602080611020960151920151923361126e565b3880808080610ffd565b611036949192336113ba565b611020565b6040516001600160a01b03828116919085169033907f4a39dc06d4c0dbc64b70af90fd698a233a518aa5d07e595d983b8c0526c8f7fb908061107e888c83611093565b0390a4610fee565b91908201809211610c1457565b90916110aa6103009360408452604084019061078e565b91602081840391015261078e565b9081602091031261012057516103008161022f565b909260a0926103009594600180861b03168352600060208401526040830152606082015281608082015201906102af565b919261030095949160a094600180871b0380921685521660208401526040830152606082015281608082015201906102af565b6040519061113e8261041f565b60008252565b3d1561116f573d90611155826104d8565b916111636040519384610440565b82523d6000602084013e565b606090565b9293919093843b611186575050505050565b6020916111a9604051948593849363f23a6e6160e01b98898652600486016110cd565b038160006001600160a01b0388165af16000918161123e575b5061120157826111d0611144565b80519190826111fa57604051632bfa23e760e11b81526001600160a01b0383166004820152602490fd5b6020915001fd5b6001600160e01b0319160361121b57503880808080610ffd565b604051632bfa23e760e11b81526001600160a01b03919091166004820152602490fd5b61126091925060203d8111611267575b6112588183610440565b8101906110b8565b90386111c2565b503d61124e565b939290949194853b611283575b505050505050565b6112a6602093604051958694859463f23a6e6160e01b998a8752600487016110fe565b038160006001600160a01b0388165af1600091816112e8575b506112cd57826111d0611144565b6001600160e01b0319160361121b575038808080808061127b565b61130191925060203d8111611267576112588183610440565b90386112bf565b9261133761030095936113459360018060a01b031686526000602087015260a0604087015260a086019061078e565b90848203606086015261078e565b9160808184039101526102af565b93906103009593611337916113459460018060a01b03809216885216602087015260a0604087015260a086019061078e565b9293919093843b611397575050505050565b6020916111a9604051948593849363bc197c8160e01b9889865260048601611308565b939290949194853b6113ce57505050505050565b6112a6602093604051958694859463bc197c8160e01b998a875260048701611353565b9091906001600160a01b038116156101c95761143092604051906001825260208201526040810191600183526001606083015260808201604052610d08565b56fea2646970667358221220205d38ebc38aaae703d378dd27391b0dddfa23e53893aa44dd295bd2d8f3bb7364736f6c63430008140033",
  "linkReferences": {},
  "deployedLinkReferences": {}
}