{
  "_format": "hh-sol-artifact-1",
  "contractName": "CourseCertificate",
  "sourceName": "contracts/CourseCertificate.sol",
  "abi": [
    {
      "inputs": [],
      "stateMutability": "nonpayable",
      "type": "constructor"
    },
    {
      "inputs": [],
      "name": "CertificateAlreadyExists",
      "type": "error"
    },
    {
      "inputs": [],
      "name": "CertificateNotFound",
      "type": "error"
    },
    {
      "inputs": [],
      "name": "InvalidCourseId",
      "type": "error"
    },
    {
      "inputs": [],
      "name": "InvalidRecipient",
      "type": "error"
    },
    {
      "inputs": [],
      "name": "Unauthorized",
      "type": "error"
    },
    {
      "anonymous": false,
      "inputs": [
        {
          "indexed": true,
          "internalType": "address",
          "name": "recipient",
          "type": "address"
        },
        {
          "indexed": true,
          "internalType": "uint256",
          "name": "courseId",
          "type": "uint256"
        },
        {
          "indexed": false,
          "internalType": "uint256",
          "name": "timestamp",
          "type": "uint256"
        }
      ],
      "name": "CertificateIssued",
      "type": "event"
    },
    {
      "inputs": [
        {
          "internalType": "address[]",
          "name": "recipients",
          "type": "address[]"
        },
        {
          "internalType": "uint256",
          "name": "courseId",
          "type": "uint256"
        }
      ],
      "name": "batchIssueCertificates",
      "outputs": [],
      "stateMutability": "nonpayable",
      "type": "function"
    },
    {
      "inputs": [
        {
          "internalType": "uint256",
          "name": "",
          "type": "uint256"
        }
      ],
      "name": "courseCertificateCount",
      "outputs": [
        {
          "internalType": "uint256",
          "name": "",
          "type": "uint256"
        }
      ],
      "stateMutability": "view",
      "type": "function"
    },
    {
      "inputs": [
        {
          "internalType": "address",
          "name": "recipient",
          "type": "address"
        },
        {
          "internalType": "uint256[]",
          "name": "courseIds",
          "type": "uint256[]"
        }
      ],
      "name": "getCertificateStatuses",
      "outputs": [
        {
          "internalType": "uint256[]",
          "name": "statuses",
          "type": "uint256[]"
        }
      ],
      "stateMutability": "view",
      "type": "function"
    },
    {
      "inputs": [
        {
          "internalType": "address",
          "name": "recipient",
          "type": "address"
        },
        {
          "internalType": "uint256",
          "name": "courseId",
          "type": "uint256"
        }
      ],
      "name": "getCertificateTimestamp",
      "outputs": [
        {
          "internalType": "uint256",
          "name": "timestamp",
          "type": "uint256"
        }
      ],
      "stateMutability": "view",
      "type": "function"
    },
    {
      "inputs": [
        {
          "internalType": "uint256",
          "name": "courseId",
          "type": "uint256"
        }
      ],
      "name": "getCourseCertificateCount",
      "outputs": [
        {
          "internalType": "uint256",
          "name": "count",
          "type": "uint256"
        }
      ],
      "stateMutability": "view",
      "type": "function"
    },
    {
      "inputs": [],
      "name": "getStats",
      "outputs": [
        {
          "internalType": "uint256",
          "name": "totalIssued",
          "type": "uint256"
        },
        {
          "internalType": "address",
          "name": "contractOwner",
          "type": "address"
        }
      ],
      "stateMutability": "view",
      "type": "function"
    },
    {
      "inputs": [
        {
          "internalType": "address",
          "name": "recipient",
          "type": "address"
        },
        {
          "internalType": "uint256",
          "name": "courseId",
          "type": "uint256"
        }
      ],
      "name": "hasCertificate",
      "outputs": [
        {
          "internalType": "bool",
          "name": "exists",
          "type": "bool"
        },
        {
          "internalType": "uint256",
          "name": "timestamp",
          "type": "uint256"
        }
      ],
      "stateMutability": "view",
      "type": "function"
    },
    {
      "inputs": [
        {
          "internalType": "address",
          "name": "recipient",
          "type": "address"
        },
        {
          "internalType": "uint256",
          "name": "courseId",
          "type": "uint256"
        }
      ],
      "name": "issueCertificate",
      "outputs": [],
      "stateMutability": "nonpayable",
      "type": "function"
    },
    {
      "inputs": [],
      "name": "owner",
      "outputs": [
        {
          "internalType": "address",
          "name": "",
          "type": "address"
        }
      ],
      "stateMutability": "view",
      "type": "function"
    },
    {
      "inputs": [],
      "name": "totalCertificates",
      "outputs": [
        {
          "internalType": "uint256",
          "name": "",
          "type": "uint256"
        }
      ],
      "stateMutability": "view",
      "type": "function"
    }
  ],
  "bytecode": "0x60a0806040523461003757336080526106ef908161003d823960805181818160d801528181610265015281816102c201526104ca0152f35b600080fdfe6080604081815260048036101561001557600080fd5b600092833560e01c9081630a214a8f14610483575080630ce7ed981461043b5780634d3713ef146103e3578063596b772f146103c4578063599cb8c01461039d5780636c4ecd84146102985780638da5cb5b14610250578063a229af4e1461010a578063c59d4847146100bb5763ea6a381e1461009157600080fd5b346100b75760203660031901126100b75760209282913581526001845220549051908152f35b8280fd5b8284346101075780600319360112610107575060025481519081527f00000000000000000000000000000000000000000000000000000000000000006001600160a01b03166020820152f35b80fd5b50823461010757826003193601126101075761012461064f565b90602480359267ffffffffffffffff9384811161024c579061014d601f94939236908801610619565b96906101588861068b565b895197871997909101871688019081118882101761023a57899897959699528685526101838761068b565b966020998a870198013689376001600160a01b0390931692865b8181106101e55750505050505083519485948186019282875251809352850193925b8281106101ce57505050500390f35b8351855286955093810193928101926001016101bf565b848897999a9b98528688528a87206101fe828486610665565b35885288528a872054895182101561022857600582901b8a0189015296999897959660010161019d565b634e487b7160e01b8852603285528688fd5b634e487b7160e01b8652604183528486fd5b8380fd5b505034610294578160031936011261029457517f00000000000000000000000000000000000000000000000000000000000000006001600160a01b03168152602090f35b5080fd5b5090346100b757806003193601126100b7576102b261064f565b60243592906001600160a01b03907f00000000000000000000000000000000000000000000000000000000000000008216330361038e5716918215610381578315610374578285526020918583528186208587528352818620546103665750907f65db4d653a1dec19354793622d6b806e92c72ac3f02709ab594eaf33c3a968669183865285825280862085875282524281872055600182528086206001815401905560016002540160025551428152a380f35b9051635a0e33b560e01b8152fd5b51636482b7e760e11b8152fd5b51634e46966960e11b8152fd5b83516282b42960e81b81528390fd5b50346100b75760203660031901126100b75760209282913581526001845220549051908152f35b5050346102945781600319360112610294576020906002549051908152f35b50913461010757816003193601126101075781906001600160a01b0361040761064f565b168152806020528181206024358252602052205490811561042c576020925051908152f35b5163761e55e760e01b81529050fd5b5050346102945780600319360112610294579081906001600160a01b0361046061064f565b168152806020528181206024358252602052205481519080151582526020820152f35b849391503461024c578160031936011261024c57823567ffffffffffffffff8111610615576104b59036908501610619565b9360248035939192916001600160a01b0391907f000000000000000000000000000000000000000000000000000000000000000083163303610608575084156105f85786156105e8578796885b8181106105355750505050505082610518578380f35b835260016020528220818154019055600254016002558180808380f35b610540818387610665565b358481168091036105e457801515806105c9575b610562575b50600101610502565b808b526020998b8b52898c20898d528b52428a8d205560001981146105b757600192917f65db4d653a1dec19354793622d6b806e92c72ac3f02709ab594eaf33c3a96866848b93019c8c51428152a390610559565b634e487b7160e01b8c5260118852848cfd5b50808b5260208b8152898c2090898d5252888b205415610554565b8a80fd5b8551634e46966960e11b81528490fd5b8551636482b7e760e11b81528490fd5b6282b42960e81b81528490fd5b8480fd5b9181601f8401121561064a5782359167ffffffffffffffff831161064a576020808501948460051b01011161064a57565b600080fd5b600435906001600160a01b038216820361064a57565b91908110156106755760051b0190565b634e487b7160e01b600052603260045260246000fd5b67ffffffffffffffff81116106a35760051b60200190565b634e487b7160e01b600052604160045260246000fdfea26469706673582212203b6eecce3cd5604ec978830eb32106d3d4878fe4a4e91bceca0a85d1052ebcc764736f6c63430008140033",
  "linkReferences": {},
  "deployedLinkReferences": {}
}